{
  "contractName": "Ownable",
  "abi": [
    {
      "inputs": [],
      "stateMutability": "nonpayable",
      "type": "constructor"
    },
    {
      "anonymous": false,
      "inputs": [
        {
          "indexed": true,
          "internalType": "address",
          "name": "previousOwner",
          "type": "address"
        },
        {
          "indexed": true,
          "internalType": "address",
          "name": "newOwner",
          "type": "address"
        }
      ],
      "name": "OwnershipTransferred",
      "type": "event"
    },
    {
      "inputs": [],
      "name": "CANNOT_TRANSFER_TO_ZERO_ADDRESS",
      "outputs": [
        {
          "internalType": "string",
          "name": "",
          "type": "string"
        }
      ],
      "stateMutability": "view",
      "type": "function"
    },
    {
      "inputs": [],
      "name": "NOT_CURRENT_OWNER",
      "outputs": [
        {
          "internalType": "string",
          "name": "",
          "type": "string"
        }
      ],
      "stateMutability": "view",
      "type": "function"
    },
    {
      "inputs": [],
      "name": "owner",
      "outputs": [
        {
          "internalType": "address",
          "name": "",
          "type": "address"
        }
      ],
      "stateMutability": "view",
      "type": "function"
    },
    {
      "inputs": [
        {
          "internalType": "address",
          "name": "_newOwner",
          "type": "address"
        }
      ],
      "name": "transferOwnership",
      "outputs": [],
      "stateMutability": "nonpayable",
      "type": "function"
    }
  ],
  "bytecode": "0x608060405234801561001057600080fd5b50600080546001600160a01b0319163317905561029f806100326000396000f3fe608060405234801561001057600080fd5b506004361061004c5760003560e01c8063860d248a146100515780638da5cb5b1461008c578063f2fde38b146100b7578063f3fe3bc3146100cc575b600080fd5b6100766040518060400160405280600681526020016518189c18181960d11b81525081565b6040516100839190610214565b60405180910390f35b60005461009f906001600160a01b031681565b6040516001600160a01b039091168152602001610083565b6100ca6100c53660046101e4565b6100f1565b005b6100766040518060400160405280600681526020016530313830303160d01b81525081565b60005460408051808201909152600681526530313830303160d01b6020820152906001600160a01b031633146101435760405162461bcd60e51b815260040161013a9190610214565b60405180910390fd5b5060408051808201909152600681526518189c18181960d11b60208201526001600160a01b0382166101885760405162461bcd60e51b815260040161013a9190610214565b50600080546040516001600160a01b03808516939216917f8be0079c531659141344cd1fd0a4f28419497f9722a3daafe3b4186f6b6457e091a3600080546001600160a01b0319166001600160a01b0392909216919091179055565b6000602082840312156101f657600080fd5b81356001600160a01b038116811461020d57600080fd5b9392505050565b600060208083528351808285015260005b8181101561024157858101830151858201604001528201610225565b81811115610253576000604083870101525b50601f01601f191692909201604001939250505056fea264697066735822122039cb128324d34978c0bf8868795f9dd0b8dd5317b845f318ac9c5acfdb718c5464736f6c63430008060033",
  "immutableReferences": {},
  "source": "// SPDX-License-Identifier: MIT\npragma solidity ^0.8.0;\n\n/**\n * @dev The contract has an owner address, and provides basic authorization control whitch\n * simplifies the implementation of user permissions. This contract is based on the source code at:\n * https://github.com/OpenZeppelin/openzeppelin-solidity/blob/master/contracts/ownership/Ownable.sol\n */\ncontract Ownable\n{\n\n  /**\n   * @dev Error constants.\n   */\n  string public constant NOT_CURRENT_OWNER = \"018001\";\n  string public constant CANNOT_TRANSFER_TO_ZERO_ADDRESS = \"018002\";\n\n  /**\n   * @dev Current owner address.\n   */\n  address public owner;\n\n  /**\n   * @dev An event which is triggered when the owner is changed.\n   * @param previousOwner The address of the previous owner.\n   * @param newOwner The address of the new owner.\n   */\n  event OwnershipTransferred(\n    address indexed previousOwner,\n    address indexed newOwner\n  );\n\n  /**\n   * @dev The constructor sets the original `owner` of the contract to the sender account.\n   */\n  constructor()\n  {\n    owner = msg.sender;\n  }\n\n  /**\n   * @dev Throws if called by any account other than the owner.\n   */\n  modifier onlyOwner()\n  {\n    require(msg.sender == owner, NOT_CURRENT_OWNER);\n    _;\n  }\n\n  /**\n   * @dev Allows the current owner to transfer control of the contract to a newOwner.\n   * @param _newOwner The address to transfer ownership to.\n   */\n  function transferOwnership(\n    address _newOwner\n  )\n    public\n    onlyOwner\n  {\n    require(_newOwner != address(0), CANNOT_TRANSFER_TO_ZERO_ADDRESS);\n    emit OwnershipTransferred(owner, _newOwner);\n    owner = _newOwner;\n  }\n\n}\n",
  "sourcePath": "/Users/joe/projects/makeschool/BEW2-4/speak_ERC-721/speak/contracts/ownable.sol",
  "compiler": {
    "name": "solc",
    "version": "0.8.6+commit.11564f7e.Emscripten.clang"
  },
  "schemaVersion": "3.4.1",
  "updatedAt": "2021-07-10T04:16:36.397Z",
  "devdoc": {
    "details": "The contract has an owner address, and provides basic authorization control whitch simplifies the implementation of user permissions. This contract is based on the source code at: https://github.com/OpenZeppelin/openzeppelin-solidity/blob/master/contracts/ownership/Ownable.sol",
    "events": {
      "OwnershipTransferred(address,address)": {
        "details": "An event which is triggered when the owner is changed.",
        "params": {
          "newOwner": "The address of the new owner.",
          "previousOwner": "The address of the previous owner."
        }
      }
    },
    "kind": "dev",
    "methods": {
      "constructor": {
        "details": "The constructor sets the original `owner` of the contract to the sender account."
      },
      "transferOwnership(address)": {
        "details": "Allows the current owner to transfer control of the contract to a newOwner.",
        "params": {
          "_newOwner": "The address to transfer ownership to."
        }
      }
    },
    "stateVariables": {
      "NOT_CURRENT_OWNER": {
        "details": "Error constants."
      },
      "owner": {
        "details": "Current owner address."
      }
    },
    "version": 1
  },
  "userdoc": {
    "kind": "user",
    "methods": {},
    "version": 1
  }
}