{
  "contractName": "SpeakWordManager",
  "abi": [
    {
      "inputs": [],
      "stateMutability": "nonpayable",
      "type": "constructor"
    },
    {
      "anonymous": false,
      "inputs": [
        {
          "indexed": false,
          "internalType": "uint256",
          "name": "wordId",
          "type": "uint256"
        },
        {
          "indexed": false,
          "internalType": "string",
          "name": "title",
          "type": "string"
        },
        {
          "indexed": false,
          "internalType": "string",
          "name": "body",
          "type": "string"
        },
        {
          "indexed": false,
          "internalType": "address",
          "name": "owner",
          "type": "address"
        }
      ],
      "name": "NewWord",
      "type": "event"
    },
    {
      "anonymous": false,
      "inputs": [
        {
          "indexed": true,
          "internalType": "address",
          "name": "previousOwner",
          "type": "address"
        },
        {
          "indexed": true,
          "internalType": "address",
          "name": "newOwner",
          "type": "address"
        }
      ],
      "name": "OwnershipTransferred",
      "type": "event"
    },
    {
      "inputs": [],
      "name": "CANNOT_TRANSFER_TO_ZERO_ADDRESS",
      "outputs": [
        {
          "internalType": "string",
          "name": "",
          "type": "string"
        }
      ],
      "stateMutability": "view",
      "type": "function"
    },
    {
      "inputs": [],
      "name": "NOT_CURRENT_OWNER",
      "outputs": [
        {
          "internalType": "string",
          "name": "",
          "type": "string"
        }
      ],
      "stateMutability": "view",
      "type": "function"
    },
    {
      "inputs": [],
      "name": "owner",
      "outputs": [
        {
          "internalType": "address",
          "name": "",
          "type": "address"
        }
      ],
      "stateMutability": "view",
      "type": "function"
    },
    {
      "inputs": [
        {
          "internalType": "uint256",
          "name": "",
          "type": "uint256"
        }
      ],
      "name": "speakers",
      "outputs": [
        {
          "internalType": "address",
          "name": "",
          "type": "address"
        }
      ],
      "stateMutability": "view",
      "type": "function"
    },
    {
      "inputs": [
        {
          "internalType": "uint256",
          "name": "",
          "type": "uint256"
        }
      ],
      "name": "topWords",
      "outputs": [
        {
          "internalType": "uint256",
          "name": "",
          "type": "uint256"
        }
      ],
      "stateMutability": "view",
      "type": "function"
    },
    {
      "inputs": [
        {
          "internalType": "address",
          "name": "_newOwner",
          "type": "address"
        }
      ],
      "name": "transferOwnership",
      "outputs": [],
      "stateMutability": "nonpayable",
      "type": "function"
    },
    {
      "inputs": [
        {
          "internalType": "uint256",
          "name": "",
          "type": "uint256"
        }
      ],
      "name": "words",
      "outputs": [
        {
          "internalType": "string",
          "name": "title",
          "type": "string"
        },
        {
          "internalType": "string",
          "name": "body",
          "type": "string"
        },
        {
          "internalType": "uint32",
          "name": "timestamp",
          "type": "uint32"
        }
      ],
      "stateMutability": "view",
      "type": "function"
    },
    {
      "inputs": [
        {
          "internalType": "string",
          "name": "_title",
          "type": "string"
        },
        {
          "internalType": "string",
          "name": "_body",
          "type": "string"
        }
      ],
      "name": "createWord",
      "outputs": [],
      "stateMutability": "payable",
      "type": "function"
    },
    {
      "inputs": [
        {
          "internalType": "uint256",
          "name": "wordId",
          "type": "uint256"
        }
      ],
      "name": "like",
      "outputs": [],
      "stateMutability": "nonpayable",
      "type": "function"
    },
    {
      "inputs": [],
      "name": "getTopWords",
      "outputs": [
        {
          "internalType": "uint256[50]",
          "name": "wordIdArray",
          "type": "uint256[50]"
        },
        {
          "internalType": "string[50]",
          "name": "titleArray",
          "type": "string[50]"
        },
        {
          "internalType": "string[50]",
          "name": "bodyArray",
          "type": "string[50]"
        },
        {
          "internalType": "uint32[50]",
          "name": "timestampArray",
          "type": "uint32[50]"
        },
        {
          "internalType": "uint256[50]",
          "name": "totalLikesArray",
          "type": "uint256[50]"
        },
        {
          "internalType": "bool[50]",
          "name": "likedArray",
          "type": "bool[50]"
        }
      ],
      "stateMutability": "view",
      "type": "function"
    },
    {
      "inputs": [],
      "name": "getRecentWords",
      "outputs": [
        {
          "internalType": "uint256[50]",
          "name": "wordIdArray",
          "type": "uint256[50]"
        },
        {
          "internalType": "string[50]",
          "name": "titleArray",
          "type": "string[50]"
        },
        {
          "internalType": "string[50]",
          "name": "bodyArray",
          "type": "string[50]"
        },
        {
          "internalType": "uint32[50]",
          "name": "timestampArray",
          "type": "uint32[50]"
        },
        {
          "internalType": "uint256[50]",
          "name": "totalLikesArray",
          "type": "uint256[50]"
        },
        {
          "internalType": "bool[50]",
          "name": "likedArray",
          "type": "bool[50]"
        }
      ],
      "stateMutability": "view",
      "type": "function"
    },
    {
      "inputs": [
        {
          "internalType": "address",
          "name": "owner",
          "type": "address"
        }
      ],
      "name": "getWords",
      "outputs": [
        {
          "internalType": "uint256[1000]",
          "name": "wordIdArray",
          "type": "uint256[1000]"
        },
        {
          "internalType": "string[1000]",
          "name": "titleArray",
          "type": "string[1000]"
        },
        {
          "internalType": "string[1000]",
          "name": "bodyArray",
          "type": "string[1000]"
        },
        {
          "internalType": "uint32[1000]",
          "name": "timestampArray",
          "type": "uint32[1000]"
        }
      ],
      "stateMutability": "view",
      "type": "function"
    },
    {
      "inputs": [],
      "name": "getAllWords",
      "outputs": [
        {
          "components": [
            {
              "internalType": "string",
              "name": "title",
              "type": "string"
            },
            {
              "internalType": "string",
              "name": "body",
              "type": "string"
            },
            {
              "internalType": "uint32",
              "name": "timestamp",
              "type": "uint32"
            }
          ],
          "internalType": "struct SpeakWordManager.Word[]",
          "name": "words",
          "type": "tuple[]"
        }
      ],
      "stateMutability": "view",
      "type": "function"
    },
    {
      "inputs": [
        {
          "internalType": "uint256",
          "name": "_fee",
          "type": "uint256"
        }
      ],
      "name": "setCreateWordFee",
      "outputs": [],
      "stateMutability": "nonpayable",
      "type": "function"
    }
  ],
  "bytecode": "0x608060405266038d7ea4c680006001553480156200001c57600080fd5b50600080546001600160a01b031916331781556040805160a081019091526072808252620021076020830139905062000085604051806040016040528060118152602001702634b132b93a3c9037b3102bb7b932399760791b815250826200008c60201b60201c565b50620004c5565b336000908152600460205260409020546103e811620000aa57600080fd5b60408051606081018252838152602080820184905263ffffffff42169282019290925260058054600181018255600091909152815180519293849360039093027f036b6384b5eca791c62761152d0c79bb0604c104a5fb6f4eb0703f3154bb3db001926200011c9284920190620002e4565b506020828101518051620001379260018501920190620002e4565b506040918201516002918201805463ffffffff191663ffffffff9092169190911790556005546000818152600360209081528482208054336001600160a01b0319918216811790925594825285832080546001818101835591855283852001805490961682179095558252600490529290922054620001b69162000423565b33600090815260046020526040902055620001d06200022e565b600081815260036020526040908190205490517f81519a1f48c791d544e19b36ffa377cd5f6d15ab057b9034eff84f019eb9379f9162000220918491889188916001600160a01b031690620003da565b60405180910390a150505050565b60005b6006548110156200029057336001600160a01b0316600682815481106200025c576200025c620004af565b6000918252602090912001546001600160a01b031614156200027b5750565b8062000287816200047b565b91505062000231565b50600080546006805460018101825592527ff652222313e28459528d920b65115c16c04f3efc82aaedc97be59f3f377c0d3f90910180546001600160a01b0319166001600160a01b03909216919091179055565b828054620002f2906200043e565b90600052602060002090601f01602090048101928262000316576000855562000361565b82601f106200033157805160ff191683800117855562000361565b8280016001018555821562000361579182015b828111156200036157825182559160200191906001019062000344565b506200036f92915062000373565b5090565b5b808211156200036f576000815560010162000374565b6000815180845260005b81811015620003b25760208185018101518683018201520162000394565b81811115620003c5576000602083870101525b50601f01601f19169290920160200192915050565b848152608060208201526000620003f560808301866200038a565b82810360408401526200040981866200038a565b91505060018060a01b038316606083015295945050505050565b6000821982111562000439576200043962000499565b500190565b600181811c908216806200045357607f821691505b602082108114156200047557634e487b7160e01b600052602260045260246000fd5b50919050565b600060001982141562000492576200049262000499565b5060010190565b634e487b7160e01b600052601160045260246000fd5b634e487b7160e01b600052603260045260246000fd5b611c3280620004d56000396000f3fe6080604052600436106100ad5760003560e01c806332d86b6e146100b25780634abaac33146100d457806351ac06501461010457806359171a231461013c578063753967761461016a578063860d248a1461019a578063884fc838146101d95780638da5cb5b14610208578063b03594a714610228578063cae2ff0e14610244578063e82935da14610257578063f2fde38b14610277578063f3fe3bc314610297578063f6967d1d146102c9575b600080fd5b3480156100be57600080fd5b506100d26100cd36600461179f565b6102de565b005b3480156100e057600080fd5b506100e9610336565b6040516100fb969594939291906119d9565b60405180910390f35b34801561011057600080fd5b5061012461011f36600461179f565b6107f7565b6040516001600160a01b0390911681526020016100fb565b34801561014857600080fd5b5061015c61015736600461179f565b610821565b6040519081526020016100fb565b34801561017657600080fd5b5061018a61018536600461170c565b610842565b6040516100fb9493929190611947565b3480156101a657600080fd5b506101cc6040518060400160405280600681526020016518189c18181960d11b81525081565b6040516100fb9190611a8a565b3480156101e557600080fd5b506101f96101f436600461179f565b610ad9565b6040516100fb93929190611a9d565b34801561021457600080fd5b50600054610124906001600160a01b031681565b34801561023457600080fd5b5060606040516100fb91906118b0565b6100d261025236600461173c565b610c29565b34801561026357600080fd5b506100d261027236600461179f565b610c37565b34801561028357600080fd5b506100d261029236600461170c565b610d2c565b3480156102a357600080fd5b506101cc6040518060400160405280600681526020016530313830303160d01b81525081565b3480156102d557600080fd5b506100e9610e16565b60005460408051808201909152600681526530313830303160d01b6020820152906001600160a01b031633146103305760405162461bcd60e51b81526004016103279190611a8a565b60405180910390fd5b50600155565b61033e611564565b610346611583565b61034e611583565b610356611564565b61035e611564565b610366611564565b61036e611564565b610376611583565b61037e611583565b610386611564565b61038e611564565b610396611564565b60008060005b6005548110156107e05760008181526002602090815260408083208054825181850281018501909352808352919290919083018282801561040657602002820191906000526020600020905b81546001600160a01b031681526001909101906020018083116103e8575b50505050509050603282108061041c5750838151115b156107cd57603282101561043657819250805193506104ee565b60005b60328110156104ec576000600260008d846032811061045a5761045a611bd0565b602002015181526020019081526020016000208054806020026020016040519081016040528092919081815260200182805480156104c157602002820191906000526020600020905b81546001600160a01b031681526001909101906020018083116104a3575b5050505050905085815110156104d957819450805195505b50806104e481611b9f565b915050610439565b505b6000805b825181101561054557336001600160a01b031683828151811061051757610517611bd0565b60200260200101516001600160a01b0316141561053357600191505b8061053d81611b9f565b9150506104f2565b50828b856032811061055957610559611bd0565b602002015260078054600591908590811061057657610576611bd0565b90600052602060002001548154811061059157610591611bd0565b906000526020600020906003020160000180546105ad90611b64565b80601f01602080910402602001604051908101604052809291908181526020018280546105d990611b64565b80156106265780601f106105fb57610100808354040283529160200191610626565b820191906000526020600020905b81548152906001019060200180831161060957829003601f168201915b50505050508a856032811061063d5761063d611bd0565b602002018190525060056007848154811061065a5761065a611bd0565b90600052602060002001548154811061067557610675611bd0565b9060005260206000209060030201600101805461069190611b64565b80601f01602080910402602001604051908101604052809291908181526020018280546106bd90611b64565b801561070a5780601f106106df5761010080835404028352916020019161070a565b820191906000526020600020905b8154815290600101906020018083116106ed57829003601f168201915b505050505089856032811061072157610721611bd0565b602002018190525060056007848154811061073e5761073e611bd0565b90600052602060002001548154811061075957610759611bd0565b600091825260209091206002600390920201015463ffffffff1688856032811061078557610785611bd0565b63ffffffff909216602092909202015281518785603281106107a9576107a9611bd0565b6020020152808685603281106107c1576107c1611bd0565b91151560209092020152505b50806107d881611b9f565b91505061039c565b50969d959c50939a50919850965094509092505050565b6006818154811061080757600080fd5b6000918252602090912001546001600160a01b0316905081565b6007818154811061083157600080fd5b600091825260209091200154905081565b61084a6115ab565b6108526115cb565b61085a6115cb565b6108626115ab565b61086a6115ab565b6108726115cb565b61087a6115cb565b6108826115ab565b6000805b600554811015610ac8576000818152600360205260409020546001600160a01b038c811691161415610ab6578086836103e881106108c6576108c6611bd0565b602002015260058054829081106108df576108df611bd0565b906000526020600020906003020160000180546108fb90611b64565b80601f016020809104026020016040519081016040528092919081815260200182805461092790611b64565b80156109745780601f1061094957610100808354040283529160200191610974565b820191906000526020600020905b81548152906001019060200180831161095757829003601f168201915b505050505085836103e8811061098c5761098c611bd0565b602002015260058054829081106109a5576109a5611bd0565b906000526020600020906003020160010180546109c190611b64565b80601f01602080910402602001604051908101604052809291908181526020018280546109ed90611b64565b8015610a3a5780601f10610a0f57610100808354040283529160200191610a3a565b820191906000526020600020905b815481529060010190602001808311610a1d57829003601f168201915b505050505084836103e88110610a5257610a52611bd0565b60200201526005805482908110610a6b57610a6b611bd0565b600091825260209091206002600390920201015463ffffffff1683836103e88110610a9857610a98611bd0565b63ffffffff909216602092909202015281610ab281611b9f565b9250505b80610ac081611b9f565b915050610886565b509399929850909650945092505050565b60058181548110610ae957600080fd5b9060005260206000209060030201600091509050806000018054610b0c90611b64565b80601f0160208091040260200160405190810160405280929190818152602001828054610b3890611b64565b8015610b855780601f10610b5a57610100808354040283529160200191610b85565b820191906000526020600020905b815481529060010190602001808311610b6857829003601f168201915b505050505090806001018054610b9a90611b64565b80601f0160208091040260200160405190810160405280929190818152602001828054610bc690611b64565b8015610c135780601f10610be857610100808354040283529160200191610c13565b820191906000526020600020905b815481529060010190602001808311610bf657829003601f168201915b5050506002909301549192505063ffffffff1683565b610c3382826111c1565b5050565b600081815260026020908152604080832080548251818502810185019093528083529192909190830182828015610c9757602002820191906000526020600020905b81546001600160a01b03168152600190910190602001808311610c79575b5050505050905060005b8151811015610cf457818181518110610cbc57610cbc611bd0565b60200260200101516001600160a01b0316336001600160a01b03161415610ce257505050565b80610cec81611b9f565b915050610ca1565b5060008281526002602090815260408220805460018101825590835291200180546001600160a01b03191633179055610c3382611358565b60005460408051808201909152600681526530313830303160d01b6020820152906001600160a01b03163314610d755760405162461bcd60e51b81526004016103279190611a8a565b5060408051808201909152600681526518189c18181960d11b60208201526001600160a01b038216610dba5760405162461bcd60e51b81526004016103279190611a8a565b50600080546040516001600160a01b03808516939216917f8be0079c531659141344cd1fd0a4f28419497f9722a3daafe3b4186f6b6457e091a3600080546001600160a01b0319166001600160a01b0392909216919091179055565b610e1e611564565b610e26611583565b610e2e611583565b610e36611564565b610e3e611564565b610e46611564565b610e4e611564565b610e56611583565b610e5e611583565b610e66611564565b610e6e611564565b610e76611564565b6005546000908190610e8a90600190611b36565b90505b600554610e9c90603390611b36565b8111156111ac57600081815260026020908152604080832080548251818502810185019093528083529192909190830182828015610f0357602002820191906000526020600020905b81546001600160a01b03168152600190910190602001808311610ee5575b505050505090506000805b8251811015610f6157336001600160a01b0316838281518110610f3357610f33611bd0565b60200260200101516001600160a01b03161415610f4f57600191505b80610f5981611b9f565b915050610f0e565b50828a8560328110610f7557610f75611bd0565b60200201526005805484908110610f8e57610f8e611bd0565b90600052602060002090600302016000018054610faa90611b64565b80601f0160208091040260200160405190810160405280929190818152602001828054610fd690611b64565b80156110235780601f10610ff857610100808354040283529160200191611023565b820191906000526020600020905b81548152906001019060200180831161100657829003601f168201915b505050505089856032811061103a5761103a611bd0565b6020020152600580548490811061105357611053611bd0565b9060005260206000209060030201600101805461106f90611b64565b80601f016020809104026020016040519081016040528092919081815260200182805461109b90611b64565b80156110e85780601f106110bd576101008083540402835291602001916110e8565b820191906000526020600020905b8154815290600101906020018083116110cb57829003601f168201915b50505050508885603281106110ff576110ff611bd0565b6020020152600580548490811061111857611118611bd0565b600091825260209091206002600390920201015463ffffffff1687856032811061114457611144611bd0565b63ffffffff9092166020929092020152815186856032811061116857611168611bd0565b60200201528085856032811061118057611180611bd0565b911515602090920201528361119481611b9f565b945050505080806111a490611b4d565b915050610e8d565b50959c949b5092995090975095509350915050565b336000908152600460205260409020546103e8116111de57600080fd5b60408051606081018252838152602080820184905263ffffffff42169282019290925260058054600181018255600091909152815180519293849360039093027f036b6384b5eca791c62761152d0c79bb0604c104a5fb6f4eb0703f3154bb3db0019261124e92849201906115e7565b50602082810151805161126792600185019201906115e7565b506040918201516002918201805463ffffffff191663ffffffff9092169190911790556005546000818152600360209081528482208054336001600160a01b03199182168117909255948252858320805460018181018355918552838520018054909616821790955582526004905292909220546112e491611b1e565b336000908152600460205260409020556112fc6114b6565b600081815260036020526040908190205490517f81519a1f48c791d544e19b36ffa377cd5f6d15ab057b9034eff84f019eb9379f9161134a918491889188916001600160a01b031690611ad9565b60405180910390a150505050565b6007546032111561139857600780546001810182556000919091527fa66cc928b5edb82af9bd49922954155ab7b0942694bea4ce44661d9a8736c6880155565b60006002600060076000815481106113b2576113b2611bd0565b90600052602060002001548152602001908152602001600020805490509050600060076000815481106113e7576113e7611bd0565b600091825260209091200154905060015b600754811015611479576000600260006007848154811061141b5761141b611bd0565b9060005260206000200154815260200190815260200160002080549050905080841115611466578093506007828154811061145857611458611bd0565b906000526020600020015492505b508061147181611b9f565b9150506113f8565b506000838152600260205260409020548210156114b15782600782815481106114a4576114a4611bd0565b6000918252602090912001555b505050565b60005b60065481101561151057336001600160a01b0316600682815481106114e0576114e0611bd0565b6000918252602090912001546001600160a01b031614156114fe5750565b8061150881611b9f565b9150506114b9565b50600080546006805460018101825592527ff652222313e28459528d920b65115c16c04f3efc82aaedc97be59f3f377c0d3f90910180546001600160a01b0319166001600160a01b03909216919091179055565b6040518061064001604052806032906020820280368337509192915050565b6040518061064001604052806032905b60608152602001906001900390816115935790505090565b60405180617d0001604052806103e8906020820280368337509192915050565b60408051617d008101909152606081526103e760208201611593565b8280546115f390611b64565b90600052602060002090601f016020900481019282611615576000855561165b565b82601f1061162e57805160ff191683800117855561165b565b8280016001018555821561165b579182015b8281111561165b578251825591602001919060010190611640565b5061166792915061166b565b5090565b5b80821115611667576000815560010161166c565b600082601f83011261169157600080fd5b81356001600160401b03808211156116ab576116ab611be6565b604051601f8301601f19908116603f011681019082821181831017156116d3576116d3611be6565b816040528381528660208588010111156116ec57600080fd5b836020870160208301376000602085830101528094505050505092915050565b60006020828403121561171e57600080fd5b81356001600160a01b038116811461173557600080fd5b9392505050565b6000806040838503121561174f57600080fd5b82356001600160401b038082111561176657600080fd5b61177286838701611680565b9350602085013591508082111561178857600080fd5b5061179585828601611680565b9150509250929050565b6000602082840312156117b157600080fd5b5035919050565b600082617d0081018360005b6103e88110156117f45783830387526117de838351611863565b60209788019790935091909101906001016117c4565b509095945050505050565b60008261064081018360005b60328110156117f4578383038752611824838351611863565b602097880197909350919091019060010161180b565b8060005b603281101561185d57815184526020938401939091019060010161183e565b50505050565b6000815180845260005b818110156118895760208185018101518683018201520161186d565b8181111561189b576000602083870101525b50601f01601f19169290920160200192915050565b60006020808301818452808551808352604092508286019150828160051b87010184880160005b8381101561193957603f198984030185528151606081518186526118fd82870182611863565b915050888201518582038a8701526119158282611863565b9289015163ffffffff169589019590955250948701949250908601906001016118d7565b509098975050505050505050565b600061fa408287835b6103e8811015611970578151835260209283019290910190600101611950565b50505080617d00840152611986818401876117b8565b9050828103617d2084015261199b81866117b8565b915050617d4082018360005b6103e88110156119cd57815163ffffffff168352602092830192909101906001016119a7565b50505095945050505050565b60006119406119e8838a61183a565b806106408401526119fb818401896117ff565b9050828103610660840152611a1081886117ff565b91505061068082018560005b6032811015611a4157815163ffffffff16835260209283019290910190600101611a1c565b505050611a52610cc083018561183a565b61130082018360005b6032811015611a7c5781511515835260209283019290910190600101611a5b565b505050979650505050505050565b6020815260006117356020830184611863565b606081526000611ab06060830186611863565b8281036020840152611ac28186611863565b91505063ffffffff83166040830152949350505050565b848152608060208201526000611af26080830186611863565b8281036040840152611b048186611863565b91505060018060a01b038316606083015295945050505050565b60008219821115611b3157611b31611bba565b500190565b600082821015611b4857611b48611bba565b500390565b600081611b5c57611b5c611bba565b506000190190565b600181811c90821680611b7857607f821691505b60208210811415611b9957634e487b7160e01b600052602260045260246000fd5b50919050565b6000600019821415611bb357611bb3611bba565b5060010190565b634e487b7160e01b600052601160045260246000fd5b634e487b7160e01b600052603260045260246000fd5b634e487b7160e01b600052604160045260246000fdfea2646970667358221220018e7485c4ff4c56daf46c988df4331a2604a6a6edfccba80e047b03cfc55f2d64736f6c634300080600334966206c696265727479206d65616e7320616e797468696e6720617420616c6c2c206974206d65616e732074686520726967687420746f2074656c6c2070656f706c652077686174207468657920646f206e6f742077616e7420746f20686561722e207e2047656f726765204f7277656c6c",
  "immutableReferences": {},
  "source": "pragma solidity ^0.8.0;\n\nimport \"./ownable.sol\";\nimport \"openzeppelin-solidity/contracts/utils/math/SafeCast.sol\";\nimport \"openzeppelin-solidity/contracts/utils/math/SafeMath.sol\";\n\n\n/// @author Joseph H. Cottingham\n/// @notice This is still in Beta and has not been optimized or tested\n/// @dev Nothing as of now\ncontract SpeakWordManager is Ownable {\n\n    using SafeMath for uint256;\n\n    struct Word {\n        string title;\n        string body;\n        uint32 timestamp;\n    }\n\n    struct WordExtended {\n        string title;\n        string body;\n        uint32 timestamp;\n        uint256 totalLikes;\n        bool liked;\n    }\n\n    uint createWordFee = 0.001 ether;\n\n    mapping (uint => address[]) wordToLikeAddresses;\n    mapping (uint => address) wordToOwner;\n    mapping (address => uint) ownerToBal;\n\n    Word[] public words;\n    address[] public speakers;\n\n    uint256[] public topWords;\n\n    event NewWord(uint wordId, string title, string body, address owner);\n\n\n    constructor() {\n        string memory first_word = \"If liberty means anything at all, it means the right to tell people what they do not want to hear. ~ George Orwell\";\n        _createWord(\"Liberty of Words.\", first_word);\n    }\n\n    /// @notice Creates a new word\n    /// @param _title Title of new word\n    /// @param _body Body of new word\n    function _createWord(string memory _title, string memory _body) internal {\n        require(ownerToBal[msg.sender] < 1000);\n        Word memory newWord = Word(_title, _body, uint32(block.timestamp));\n        words.push(newWord);\n        uint256 id = words.length;\n        wordToOwner[id] = msg.sender;\n        wordToLikeAddresses[id].push(msg.sender);\n        ownerToBal[msg.sender] = ownerToBal[msg.sender] + 1;\n        configSpeakers();\n        emit NewWord(id, _title, _body, wordToOwner[id]);\n    }\n\n    /// @notice Creates a new word external\n    /// @param _title Title of new word\n    /// @param _body Body of new word\n    function createWord(string memory _title, string memory _body) external payable {\n        _createWord(_title, _body);\n    }\n\n    /// @notice Like a word by word id\n    /// @param wordId id of word token\n    function like(uint256 wordId) external {\n        // Check if address has already like content\n        address[] memory wordLikes = wordToLikeAddresses[wordId];\n        for (uint256 index = 0; index < wordLikes.length; index++) {\n            if (msg.sender == wordLikes[index]) {\n                return;\n            }\n        }\n        // Like the word\n        wordToLikeAddresses[wordId].push(msg.sender);\n        // Check if this word now needs to be added to the top list\n        configTopWords(wordId);\n    }\n\n    /// @notice Checks if wordId is now one of the top words\n    /// @param wordId id of word token\n    function configTopWords(uint256 wordId) internal {\n        // Populate top words till filled to max\n        if (topWords.length < 50) {\n            topWords.push(wordId);\n            return;\n        }\n\n        // Figure out which word to replace\n        uint256 lowestLikes=wordToLikeAddresses[topWords[0]].length;\n        uint256 lowestId=topWords[0];\n        for (uint256 index = 1; index < topWords.length; index++) {\n            uint256 curLikes = wordToLikeAddresses[topWords[index]].length;\n            if (lowestLikes>curLikes) {\n                lowestLikes=curLikes;\n                lowestId=topWords[index];\n            }\n        }\n\n        // Complete the replacement\n        if (lowestLikes<wordToLikeAddresses[wordId].length) {\n            topWords[lowestId]=wordId;\n        }\n    }\n\n\n    /// @notice Get the top words of all time\n    /// @return wordIdArray Array of word Id based on index\n    /// @return titleArray Array of word title based on index\n    /// @return bodyArray Array of word bodies based on index\n    /// @return timestampArray Array of creation timestamp based on index\n    /// @return totalLikesArray Array of word likes's based on index\n    /// @return likedArray Array of wallet address like status for a word based on index\n    function getTopWords() external view returns (uint256[50] memory wordIdArray, string[50] memory titleArray, string[50] memory bodyArray, uint32[50] memory timestampArray, uint256[50] memory totalLikesArray, bool[50] memory likedArray) {\n        uint256[50] memory wordIdArray;\n        string[50] memory titleArray;\n        string[50] memory bodyArray;\n        uint32[50] memory timestampArray;\n        uint256[50] memory totalLikesArray;\n        bool[50] memory likedArray;\n    \n        uint256 lowestLikes = 0;\n        uint256 lowestLikesId = 0;\n        for (uint256 index = 0; index < words.length; index++) {\n            address[] memory likes = wordToLikeAddresses[index];\n            if (index < 50 || likes.length > lowestLikes) {\n                if (index < 50) {\n                    lowestLikesId=index;\n                    lowestLikes=likes.length;\n                } else {\n                    // Finds the lowest like word in current top list\n                    for (uint256 indexTopWord = 0; indexTopWord < wordIdArray.length; indexTopWord++) {\n                        address[] memory likesSub = wordToLikeAddresses[wordIdArray[indexTopWord]];\n                        if (likesSub.length < lowestLikes) {\n                            lowestLikesId=indexTopWord;\n                            lowestLikes=likesSub.length;\n                        }\n                    }\n                }\n                \n                bool liked = false;\n                for (uint256 indexLike = 0; indexLike < likes.length; indexLike++) {\n                    if (likes[indexLike] == msg.sender) {\n                        liked = true;\n                    }\n                }\n                \n                // Sets values\n                wordIdArray[lowestLikesId] = index;\n                titleArray[lowestLikesId] = words[topWords[index]].title;\n                bodyArray[lowestLikesId] = words[topWords[index]].body;\n                timestampArray[lowestLikesId] = words[topWords[index]].timestamp;\n                totalLikesArray[lowestLikesId] = likes.length;\n                likedArray[lowestLikesId] = liked;\n\n            }\n        }\n        return (wordIdArray, titleArray, bodyArray, timestampArray, totalLikesArray, likedArray);\n    }\n\n\n    /// @notice Get the recent created words\n    /// @return wordIdArray Array of word Id based on index\n    /// @return titleArray Array of word title based on index\n    /// @return bodyArray Array of word bodies based on index\n    /// @return timestampArray Array of creation timestamp based on index\n    /// @return totalLikesArray Array of word likes's based on index\n    /// @return likedArray Array of wallet address like status for a word based on index\n    function getRecentWords() external view returns (uint256[50] memory wordIdArray, string[50] memory titleArray, string[50] memory bodyArray, uint32[50] memory timestampArray, uint256[50] memory totalLikesArray, bool[50] memory likedArray) {\n        uint256[50] memory wordIdArray;\n        string[50] memory titleArray;\n        string[50] memory bodyArray;\n        uint32[50] memory timestampArray;\n        uint256[50] memory totalLikesArray;\n        bool[50] memory likedArray;\n    \n        uint256 count = 0;\n        for (uint256 index = words.length-1; index > words.length-51; index--) {\n            address[] memory likes = wordToLikeAddresses[index];\n            bool liked = false;\n            for (uint256 indexLike = 0; indexLike < likes.length; indexLike++) {\n                if (likes[indexLike] == msg.sender) {\n                    liked = true;\n                }\n            }\n            wordIdArray[count] = index;\n            titleArray[count] = words[index].title;\n            bodyArray[count] = words[index].body;\n            timestampArray[count] = words[index].timestamp;\n            totalLikesArray[count] = likes.length;\n            likedArray[count] = liked;\n            count++;\n        }\n        return (wordIdArray, titleArray, bodyArray, timestampArray, totalLikesArray, likedArray);\n    }\n\n\n    /// @notice Get of wall adress words\n    /// @return wordIdArray Array of word Id based on index\n    /// @return titleArray Array of word title based on index\n    /// @return bodyArray Array of word bodies based on index\n    /// @return timestampArray Array of creation timestamp based on index\n    function getWords(address owner) external view returns (uint256[1000] memory wordIdArray, string[1000] memory titleArray, string[1000] memory bodyArray, uint32[1000] memory timestampArray) {\n        uint256[1000] memory wordIdArray;\n        string[1000] memory titleArray;\n        string[1000] memory bodyArray;\n        uint32[1000] memory timestampArray;\n        \n        uint256 count = 0;\n        for (uint256 index = 0; index < words.length; index++) {\n            if (owner == wordToOwner[index]) {\n                wordIdArray[count] = index;\n                titleArray[count] = words[index].title;\n                bodyArray[count] = words[index].body;\n                timestampArray[count] = words[index].timestamp;\n                count++;\n            }\n        }\n        return (wordIdArray, titleArray, bodyArray, timestampArray);\n    } \n\n    /// @notice Get all words that exist\n    /// @return words array of all words that exist\n    function getAllWords() external view returns (Word[] memory words) {\n        return words;\n    } \n\n    /// @notice sets the new word creation fee\n    function setCreateWordFee(uint _fee) external onlyOwner {\n        createWordFee = _fee;\n    }\n\n    /// @notice sets the new word creation fee\n    function configSpeakers() internal {\n        for (uint256 index = 0; index < speakers.length; index++) {\n            if (speakers[index] == msg.sender) {\n                return;\n            }\n        }\n        speakers.push(owner);\n    }\n\n}\n",
  "sourcePath": "/Users/joe/projects/makeschool/BEW2-4/speak_ERC-721/speak/contracts/SpeakWordManager.sol",
  "compiler": {
    "name": "solc",
    "version": "0.8.6+commit.11564f7e.Emscripten.clang"
  },
  "schemaVersion": "3.4.1",
  "updatedAt": "2021-07-11T21:51:45.821Z",
  "devdoc": {
    "author": "Joseph H. Cottingham",
    "details": "Nothing as of now",
    "kind": "dev",
    "methods": {
      "createWord(string,string)": {
        "params": {
          "_body": "Body of new word",
          "_title": "Title of new word"
        }
      },
      "getAllWords()": {
        "returns": {
          "words": "array of all words that exist"
        }
      },
      "getRecentWords()": {
        "returns": {
          "bodyArray": "Array of word bodies based on index",
          "likedArray": "Array of wallet address like status for a word based on index",
          "timestampArray": "Array of creation timestamp based on index",
          "titleArray": "Array of word title based on index",
          "totalLikesArray": "Array of word likes's based on index",
          "wordIdArray": "Array of word Id based on index"
        }
      },
      "getTopWords()": {
        "returns": {
          "bodyArray": "Array of word bodies based on index",
          "likedArray": "Array of wallet address like status for a word based on index",
          "timestampArray": "Array of creation timestamp based on index",
          "titleArray": "Array of word title based on index",
          "totalLikesArray": "Array of word likes's based on index",
          "wordIdArray": "Array of word Id based on index"
        }
      },
      "getWords(address)": {
        "returns": {
          "bodyArray": "Array of word bodies based on index",
          "timestampArray": "Array of creation timestamp based on index",
          "titleArray": "Array of word title based on index",
          "wordIdArray": "Array of word Id based on index"
        }
      },
      "like(uint256)": {
        "params": {
          "wordId": "id of word token"
        }
      },
      "transferOwnership(address)": {
        "details": "Allows the current owner to transfer control of the contract to a newOwner.",
        "params": {
          "_newOwner": "The address to transfer ownership to."
        }
      }
    },
    "version": 1
  },
  "userdoc": {
    "kind": "user",
    "methods": {
      "createWord(string,string)": {
        "notice": "Creates a new word external"
      },
      "getAllWords()": {
        "notice": "Get all words that exist"
      },
      "getRecentWords()": {
        "notice": "Get the recent created words"
      },
      "getTopWords()": {
        "notice": "Get the top words of all time"
      },
      "getWords(address)": {
        "notice": "Get of wall adress words"
      },
      "like(uint256)": {
        "notice": "Like a word by word id"
      },
      "setCreateWordFee(uint256)": {
        "notice": "sets the new word creation fee"
      }
    },
    "notice": "This is still in Beta and has not been optimized or tested",
    "version": 1
  }
}