{
  "contractName": "Speak",
  "abi": [
    {
      "inputs": [],
      "stateMutability": "nonpayable",
      "type": "constructor"
    },
    {
      "anonymous": false,
      "inputs": [
        {
          "indexed": false,
          "internalType": "uint256",
          "name": "wordId",
          "type": "uint256"
        },
        {
          "indexed": false,
          "internalType": "string",
          "name": "title",
          "type": "string"
        },
        {
          "indexed": false,
          "internalType": "string",
          "name": "body",
          "type": "string"
        }
      ],
      "name": "NewWord",
      "type": "event"
    },
    {
      "anonymous": false,
      "inputs": [
        {
          "indexed": true,
          "internalType": "address",
          "name": "previousOwner",
          "type": "address"
        },
        {
          "indexed": true,
          "internalType": "address",
          "name": "newOwner",
          "type": "address"
        }
      ],
      "name": "OwnershipTransferred",
      "type": "event"
    },
    {
      "inputs": [],
      "name": "CANNOT_TRANSFER_TO_ZERO_ADDRESS",
      "outputs": [
        {
          "internalType": "string",
          "name": "",
          "type": "string"
        }
      ],
      "stateMutability": "view",
      "type": "function"
    },
    {
      "inputs": [],
      "name": "NOT_CURRENT_OWNER",
      "outputs": [
        {
          "internalType": "string",
          "name": "",
          "type": "string"
        }
      ],
      "stateMutability": "view",
      "type": "function"
    },
    {
      "inputs": [],
      "name": "owner",
      "outputs": [
        {
          "internalType": "address",
          "name": "",
          "type": "address"
        }
      ],
      "stateMutability": "view",
      "type": "function"
    },
    {
      "inputs": [
        {
          "internalType": "uint256",
          "name": "",
          "type": "uint256"
        }
      ],
      "name": "speakers",
      "outputs": [
        {
          "internalType": "address",
          "name": "",
          "type": "address"
        }
      ],
      "stateMutability": "view",
      "type": "function"
    },
    {
      "inputs": [
        {
          "internalType": "uint256",
          "name": "",
          "type": "uint256"
        }
      ],
      "name": "topWords",
      "outputs": [
        {
          "internalType": "uint256",
          "name": "",
          "type": "uint256"
        }
      ],
      "stateMutability": "view",
      "type": "function"
    },
    {
      "inputs": [
        {
          "internalType": "address",
          "name": "_newOwner",
          "type": "address"
        }
      ],
      "name": "transferOwnership",
      "outputs": [],
      "stateMutability": "nonpayable",
      "type": "function"
    },
    {
      "inputs": [
        {
          "internalType": "uint256",
          "name": "",
          "type": "uint256"
        }
      ],
      "name": "words",
      "outputs": [
        {
          "internalType": "string",
          "name": "title",
          "type": "string"
        },
        {
          "internalType": "string",
          "name": "body",
          "type": "string"
        },
        {
          "internalType": "uint32",
          "name": "timestamp",
          "type": "uint32"
        }
      ],
      "stateMutability": "view",
      "type": "function"
    },
    {
      "inputs": [
        {
          "internalType": "string",
          "name": "_title",
          "type": "string"
        },
        {
          "internalType": "string",
          "name": "_body",
          "type": "string"
        }
      ],
      "name": "createWord",
      "outputs": [],
      "stateMutability": "payable",
      "type": "function"
    },
    {
      "inputs": [
        {
          "internalType": "uint256",
          "name": "wordId",
          "type": "uint256"
        }
      ],
      "name": "like",
      "outputs": [],
      "stateMutability": "nonpayable",
      "type": "function"
    },
    {
      "inputs": [],
      "name": "getTopWords",
      "outputs": [
        {
          "components": [
            {
              "internalType": "string",
              "name": "title",
              "type": "string"
            },
            {
              "internalType": "string",
              "name": "body",
              "type": "string"
            },
            {
              "internalType": "uint32",
              "name": "timestamp",
              "type": "uint32"
            },
            {
              "internalType": "uint256",
              "name": "totalLikes",
              "type": "uint256"
            },
            {
              "internalType": "bool",
              "name": "liked",
              "type": "bool"
            }
          ],
          "internalType": "struct Speak.WordExtended[50]",
          "name": "wordsExtended",
          "type": "tuple[50]"
        }
      ],
      "stateMutability": "view",
      "type": "function"
    },
    {
      "inputs": [
        {
          "internalType": "address",
          "name": "owner",
          "type": "address"
        }
      ],
      "name": "getWords",
      "outputs": [
        {
          "internalType": "string[12]",
          "name": "titleArray",
          "type": "string[12]"
        },
        {
          "internalType": "string[12]",
          "name": "bodyArray",
          "type": "string[12]"
        },
        {
          "internalType": "uint32[12]",
          "name": "timestampArray",
          "type": "uint32[12]"
        }
      ],
      "stateMutability": "view",
      "type": "function"
    },
    {
      "inputs": [],
      "name": "getAllWords",
      "outputs": [
        {
          "components": [
            {
              "internalType": "string",
              "name": "title",
              "type": "string"
            },
            {
              "internalType": "string",
              "name": "body",
              "type": "string"
            },
            {
              "internalType": "uint32",
              "name": "timestamp",
              "type": "uint32"
            }
          ],
          "internalType": "struct Speak.Word[]",
          "name": "words",
          "type": "tuple[]"
        }
      ],
      "stateMutability": "view",
      "type": "function"
    },
    {
      "inputs": [
        {
          "internalType": "uint256",
          "name": "_fee",
          "type": "uint256"
        }
      ],
      "name": "setCreateWordFee",
      "outputs": [],
      "stateMutability": "nonpayable",
      "type": "function"
    }
  ],
  "bytecode": "0x608060405266038d7ea4c680006001553480156200001c57600080fd5b50600080546001600160a01b031916331781556040805160a081019091526072808252620017a16020830139905062000085604051806040016040528060118152602001702634b132b93a3c9037b3102bb7b932399760791b81525082620000dd60201b60201c565b50600080546006805460018101825592527ff652222313e28459528d920b65115c16c04f3efc82aaedc97be59f3f377c0d3f90910180546001600160a01b0319166001600160a01b03909216919091179055620003d3565b33600090815260046020526040902054600c11620000fa57600080fd5b60408051606081018252838152602080820184905263ffffffff42169282019290925260058054600181018255600091909152815180519293849360039093027f036b6384b5eca791c62761152d0c79bb0604c104a5fb6f4eb0703f3154bb3db001926200016c928492019062000240565b50602082810151805162000187926001850192019062000240565b506040918201516002909101805463ffffffff90921663ffffffff1990921691909117905560055460008181526003602090815283822080546001600160a01b031916339081179091558252600490529190912054620001e99060016200036f565b336000908152600460205260409081902091909155517fe56907e065195f17c6214f6cb67dc00d3bc03e571fbc508892d433f9bd39504090620002329083908790879062000336565b60405180910390a150505050565b8280546200024e9062000396565b90600052602060002090601f016020900481019282620002725760008555620002bd565b82601f106200028d57805160ff1916838001178555620002bd565b82800160010185558215620002bd579182015b82811115620002bd578251825591602001919060010190620002a0565b50620002cb929150620002cf565b5090565b5b80821115620002cb5760008155600101620002d0565b6000815180845260005b818110156200030e57602081850181015186830182015201620002f0565b8181111562000321576000602083870101525b50601f01601f19169290920160200192915050565b838152606060208201526000620003516060830185620002e6565b8281036040840152620003658185620002e6565b9695505050505050565b600082198211156200039157634e487b7160e01b600052601160045260246000fd5b500190565b600181811c90821680620003ab57607f821691505b60208210811415620003cd57634e487b7160e01b600052602260045260246000fd5b50919050565b6113be80620003e36000396000f3fe6080604052600436106100a25760003560e01c806332d86b6e146100a75780634abaac33146100c957806351ac0650146100f457806359171a231461012c578063753967761461015a578063860d248a14610189578063884fc838146101c85780638da5cb5b146101f7578063b03594a714610217578063cae2ff0e14610233578063e82935da14610246578063f2fde38b14610266578063f3fe3bc314610286575b600080fd5b3480156100b357600080fd5b506100c76100c2366004611019565b6102b8565b005b3480156100d557600080fd5b506100de610310565b6040516100eb9190611129565b60405180910390f35b34801561010057600080fd5b5061011461010f366004611019565b610624565b6040516001600160a01b0390911681526020016100eb565b34801561013857600080fd5b5061014c610147366004611019565b61064e565b6040519081526020016100eb565b34801561016657600080fd5b5061017a610175366004610f86565b610665565b6040516100eb939291906110c5565b34801561019557600080fd5b506101bb6040518060400160405280600681526020016518189c18181960d11b81525081565b6040516100eb919061125a565b3480156101d457600080fd5b506101e86101e3366004611019565b6108cc565b6040516100eb9392919061126d565b34801561020357600080fd5b50600054610114906001600160a01b031681565b34801561022357600080fd5b5060606040516100eb91906111c3565b6100c7610241366004610fb6565b610a1c565b34801561025257600080fd5b506100c7610261366004611019565b610a2a565b34801561027257600080fd5b506100c7610281366004610f86565b610ac0565b34801561029257600080fd5b506101bb6040518060400160405280600681526020016530313830303160d01b81525081565b60005460408051808201909152600681526530313830303160d01b6020820152906001600160a01b0316331461030a5760405162461bcd60e51b8152600401610301919061125a565b60405180910390fd5b50600155565b610318610dba565b610320610dba565b60005b603281101561061e57600060026000600784603281106103455761034561135c565b015481526020019081526020016000208054806020026020016040519081016040528092919081815260200182805480156103a957602002820191906000526020600020905b81546001600160a01b0316815260019091019060200180831161038b575b505050505090506000805b825181101561040757336001600160a01b03168382815181106103d9576103d961135c565b60200260200101516001600160a01b031614156103f557600191505b806103ff8161132b565b9150506103b4565b506040518060a001604052806005600786603281106104285761042861135c565b01548154811061043a5761043a61135c565b90600052602060002090600302016000018054610456906112f6565b80601f0160208091040260200160405190810160405280929190818152602001828054610482906112f6565b80156104cf5780601f106104a4576101008083540402835291602001916104cf565b820191906000526020600020905b8154815290600101906020018083116104b257829003601f168201915b505050505081526020016005600786603281106104ee576104ee61135c565b0154815481106105005761050061135c565b9060005260206000209060030201600101805461051c906112f6565b80601f0160208091040260200160405190810160405280929190818152602001828054610548906112f6565b80156105955780601f1061056a57610100808354040283529160200191610595565b820191906000526020600020905b81548152906001019060200180831161057857829003601f168201915b505050505081526020016005600786603281106105b4576105b461135c565b0154815481106105c6576105c661135c565b60009182526020918290206002600390920201015463ffffffff1682528451908201528215156040909101528484603281106106045761060461135c565b6020020152508190506106168161132b565b915050610323565b50919050565b6006818154811061063457600080fd5b6000918252602090912001546001600160a01b0316905081565b6007816032811061065e57600080fd5b0154905081565b61066d610e1a565b610675610e1a565b61067d610e42565b610685610e1a565b61068d610e1a565b610695610e42565b6000805b6005548110156108be576000818152600360205260409020546001600160a01b038a8116911614156108ac57600581815481106106d8576106d861135c565b906000526020600020906003020160000180546106f4906112f6565b80601f0160208091040260200160405190810160405280929190818152602001828054610720906112f6565b801561076d5780601f106107425761010080835404028352916020019161076d565b820191906000526020600020905b81548152906001019060200180831161075057829003601f168201915b50505050508583600c81106107845761078461135c565b6020020152600580548290811061079d5761079d61135c565b906000526020600020906003020160010180546107b9906112f6565b80601f01602080910402602001604051908101604052809291908181526020018280546107e5906112f6565b80156108325780601f1061080757610100808354040283529160200191610832565b820191906000526020600020905b81548152906001019060200180831161081557829003601f168201915b50505050508483600c81106108495761084961135c565b602002015260058054829081106108625761086261135c565b600091825260209091206002600390920201015463ffffffff168383600c811061088e5761088e61135c565b63ffffffff9092166020929092020152816108a88161132b565b9250505b806108b68161132b565b915050610699565b509297919650945092505050565b600581815481106108dc57600080fd5b90600052602060002090600302016000915090508060000180546108ff906112f6565b80601f016020809104026020016040519081016040528092919081815260200182805461092b906112f6565b80156109785780601f1061094d57610100808354040283529160200191610978565b820191906000526020600020905b81548152906001019060200180831161095b57829003601f168201915b50505050509080600101805461098d906112f6565b80601f01602080910402602001604051908101604052809291908181526020018280546109b9906112f6565b8015610a065780601f106109db57610100808354040283529160200191610a06565b820191906000526020600020905b8154815290600101906020018083116109e957829003601f168201915b5050506002909301549192505063ffffffff1683565b610a268282610baa565b5050565b6000818152600260205260408120905b8154811015610a8857818181548110610a5557610a5561135c565b6000918252602090912001546001600160a01b0316331415610a7657505050565b80610a808161132b565b915050610a3a565b5060008281526002602090815260408220805460018101825590835291200180546001600160a01b03191633179055610a2682610d04565b60005460408051808201909152600681526530313830303160d01b6020820152906001600160a01b03163314610b095760405162461bcd60e51b8152600401610301919061125a565b5060408051808201909152600681526518189c18181960d11b60208201526001600160a01b038216610b4e5760405162461bcd60e51b8152600401610301919061125a565b50600080546040516001600160a01b03808516939216917f8be0079c531659141344cd1fd0a4f28419497f9722a3daafe3b4186f6b6457e091a3600080546001600160a01b0319166001600160a01b0392909216919091179055565b33600090815260046020526040902054600c11610bc657600080fd5b60408051606081018252838152602080820184905263ffffffff42169282019290925260058054600181018255600091909152815180519293849360039093027f036b6384b5eca791c62761152d0c79bb0604c104a5fb6f4eb0703f3154bb3db00192610c369284920190610e61565b506020828101518051610c4f9260018501920190610e61565b506040918201516002909101805463ffffffff90921663ffffffff1990921691909117905560055460008181526003602090815283822080546001600160a01b031916339081179091558252600490529190912054610caf9060016112de565b336000908152600460205260409081902091909155517fe56907e065195f17c6214f6cb67dc00d3bc03e571fbc508892d433f9bd39504090610cf6908390879087906112a9565b60405180910390a150505050565b6007546000818152600260205260409020549060015b6032811015610d875760006002600060078460328110610d3c57610d3c61135c565b01548152602081019190915260400160002054905080841115610d745780935060078260328110610d6f57610d6f61135c565b015492505b5080610d7f8161132b565b915050610d1a565b50600083815260026020526040902054821015610db5578260078260328110610db257610db261135c565b01555b505050565b6040518061064001604052806032905b610e046040518060a001604052806060815260200160608152602001600063ffffffff168152602001600081526020016000151581525090565b815260200190600190039081610dca5790505090565b604051806101800160405280600c905b6060815260200190600190039081610e2a5790505090565b604051806101800160405280600c906020820280368337509192915050565b828054610e6d906112f6565b90600052602060002090601f016020900481019282610e8f5760008555610ed5565b82601f10610ea857805160ff1916838001178555610ed5565b82800160010185558215610ed5579182015b82811115610ed5578251825591602001919060010190610eba565b50610ee1929150610ee5565b5090565b5b80821115610ee15760008155600101610ee6565b600082601f830112610f0b57600080fd5b81356001600160401b0380821115610f2557610f25611372565b604051601f8301601f19908116603f01168101908282118183101715610f4d57610f4d611372565b81604052838152866020858801011115610f6657600080fd5b836020870160208301376000602085830101528094505050505092915050565b600060208284031215610f9857600080fd5b81356001600160a01b0381168114610faf57600080fd5b9392505050565b60008060408385031215610fc957600080fd5b82356001600160401b0380821115610fe057600080fd5b610fec86838701610efa565b9350602085013591508082111561100257600080fd5b5061100f85828601610efa565b9150509250929050565b60006020828403121561102b57600080fd5b5035919050565b60008261018081018360005b600c81101561106d578383038752611057838351611078565b602097880197909350919091019060010161103e565b509095945050505050565b6000815180845260005b8181101561109e57602081850181015186830182015201611082565b818111156110b0576000602083870101525b50601f01601f19169290920160200192915050565b60006101c08083526110d981840187611032565b90506020838203818501526110ee8287611032565b92506040840191508460005b600c81101561111d57815163ffffffff16845292820192908201906001016110fa565b50505050949350505050565b6020808252600090610660830183820185845b60328110156111b757601f19878503018352815160a0815181875261116382880182611078565b915050868201518682038888015261117b8282611078565b60408481015163ffffffff169089015260608085015190890152608093840151151593909701929092525050918401919084019060010161113c565b50919695505050505050565b60006020808301818452808551808352604092508286019150828160051b87010184880160005b8381101561124c57603f1989840301855281516060815181865261121082870182611078565b915050888201518582038a8701526112288282611078565b9289015163ffffffff169589019590955250948701949250908601906001016111ea565b509098975050505050505050565b602081526000610faf6020830184611078565b6060815260006112806060830186611078565b82810360208401526112928186611078565b91505063ffffffff83166040830152949350505050565b8381526060602082015260006112c26060830185611078565b82810360408401526112d48185611078565b9695505050505050565b600082198211156112f1576112f1611346565b500190565b600181811c9082168061130a57607f821691505b6020821081141561061e57634e487b7160e01b600052602260045260246000fd5b600060001982141561133f5761133f611346565b5060010190565b634e487b7160e01b600052601160045260246000fd5b634e487b7160e01b600052603260045260246000fd5b634e487b7160e01b600052604160045260246000fdfea2646970667358221220aae1a9ce92caa82fd1831a16368c08c92cb03f4a3603c4f502d25d846e1825aa64736f6c634300080600334966206c696265727479206d65616e7320616e797468696e6720617420616c6c2c206974206d65616e732074686520726967687420746f2074656c6c2070656f706c652077686174207468657920646f206e6f742077616e7420746f20686561722e207e2047656f726765204f7277656c6c",
  "immutableReferences": {},
  "source": "pragma solidity ^0.8.0;\n\nimport \"./ownable.sol\";\nimport \"openzeppelin-solidity/contracts/utils/math/SafeCast.sol\";\nimport \"openzeppelin-solidity/contracts/utils/math/SafeMath.sol\";\n\ncontract Speak is Ownable {\n\n    using SafeMath for uint256;\n    \n    event NewWord(uint wordId, string title, string body);\n\n    uint createWordFee = 0.001 ether;\n\n\n    struct Word {\n        string title;\n        string body;\n        uint32 timestamp;\n    }\n\n    struct WordExtended {\n        string title;\n        string body;\n        uint32 timestamp;\n        uint256 totalLikes;\n        bool liked;\n    }\n\n    mapping (uint => address[]) wordToLikeAddresses;\n    mapping (uint => address) wordToOwner;\n    mapping (address => uint) ownerToBal;\n\n    Word[] public words;\n    address[] public speakers;\n\n    uint256[50] public topWords;\n\n    constructor() {\n        string memory first_word = \"If liberty means anything at all, it means the right to tell people what they do not want to hear. ~ George Orwell\";\n        _createWord(\"Liberty of Words.\", first_word);\n        speakers.push(owner);\n    }\n\n\n    function _createWord(string memory _title, string memory _body) internal {\n        require(ownerToBal[msg.sender] < 12);\n        Word memory newWord = Word(_title, _body, uint32(block.timestamp));\n        words.push(newWord);\n        uint256 id = words.length;\n        wordToOwner[id] = msg.sender;\n        ownerToBal[msg.sender] = ownerToBal[msg.sender] + 1;\n        emit NewWord(id, _title, _body);\n    }\n\n    function createWord(string memory _title, string memory _body) external payable {\n        _createWord(_title, _body);\n    }\n\n    function like(uint256 wordId) external {\n        address[] storage wordLikes = wordToLikeAddresses[wordId];\n        for (uint256 index = 0; index < wordLikes.length; index++) {\n            if (msg.sender == wordLikes[index]) {\n                return;\n            }\n        }\n        wordToLikeAddresses[wordId].push(msg.sender);\n        configTopWords(wordId);\n    }\n\n    function configTopWords(uint256 wordId) internal {\n        // Confirm there is a word in topWord list\n        if (topWords.length == 0) {\n            topWords[0] = wordId;\n            return;\n        }\n        uint256 lowestLikes=wordToLikeAddresses[topWords[0]].length;\n        uint256 lowestId=topWords[0];\n        for (uint256 index = 1; index < topWords.length; index++) {\n            uint256 curLikes = wordToLikeAddresses[topWords[index]].length;\n            if (lowestLikes>curLikes) {\n                lowestLikes=curLikes;\n                lowestId=topWords[index];\n            }\n        }\n        if (lowestLikes<wordToLikeAddresses[wordId].length) {\n            topWords[lowestId]=wordId;\n        }\n    }\n\n\n    function getTopWords() external view returns (WordExtended[50] memory wordsExtended) {\n        WordExtended[50] memory wordsExtended;\n        for (uint256 index = 0; index < topWords.length; index++) {\n            address[] memory likes = wordToLikeAddresses[topWords[index]];\n            bool liked = false;\n            for (uint256 indexLike = 0; indexLike < likes.length; indexLike++) {\n                if (likes[indexLike] == msg.sender) {\n                    liked = true;\n                }\n            }\n\n            wordsExtended[index] = WordExtended(words[topWords[index]].title, words[topWords[index]].body,words[topWords[index]].timestamp, likes.length, liked);\n        }\n        return wordsExtended;\n    }\n\n    function getWords(address owner) external view returns (string[12] memory titleArray, string[12] memory bodyArray, uint32[12] memory timestampArray) {\n        string[12] memory titleArray;\n        string[12] memory bodyArray;\n        uint32[12] memory timestampArray;\n        \n        uint256 count = 0;\n        for (uint256 index = 0; index < words.length; index++) {\n            if (owner == wordToOwner[index]) {\n                titleArray[count] = words[index].title;\n                bodyArray[count] = words[index].body;\n                timestampArray[count] = words[index].timestamp;\n                count++;\n            }\n        }\n        return (titleArray, bodyArray, timestampArray);\n    } \n\n    function getAllWords() external view returns (Word[] memory words) {\n        return words;\n    } \n\n\n    function setCreateWordFee(uint _fee) external onlyOwner {\n        createWordFee = _fee;\n    }\n\n}\n",
  "sourcePath": "/Users/joe/projects/makeschool/BEW2-4/speak_ERC-721/speak/contracts/speak.sol",
  "compiler": {
    "name": "solc",
    "version": "0.8.6+commit.11564f7e.Emscripten.clang"
  },
  "schemaVersion": "3.4.1",
  "updatedAt": "2021-07-10T04:16:36.399Z",
  "devdoc": {
    "kind": "dev",
    "methods": {
      "transferOwnership(address)": {
        "details": "Allows the current owner to transfer control of the contract to a newOwner.",
        "params": {
          "_newOwner": "The address to transfer ownership to."
        }
      }
    },
    "version": 1
  },
  "userdoc": {
    "kind": "user",
    "methods": {},
    "version": 1
  }
}