{
  "contractName": "SpeakIERC721",
  "abi": [
    {
      "inputs": [],
      "stateMutability": "nonpayable",
      "type": "constructor"
    },
    {
      "anonymous": false,
      "inputs": [
        {
          "indexed": true,
          "internalType": "address",
          "name": "owner",
          "type": "address"
        },
        {
          "indexed": true,
          "internalType": "address",
          "name": "approved",
          "type": "address"
        },
        {
          "indexed": true,
          "internalType": "uint256",
          "name": "tokenId",
          "type": "uint256"
        }
      ],
      "name": "Approval",
      "type": "event"
    },
    {
      "anonymous": false,
      "inputs": [
        {
          "indexed": true,
          "internalType": "address",
          "name": "owner",
          "type": "address"
        },
        {
          "indexed": true,
          "internalType": "address",
          "name": "operator",
          "type": "address"
        },
        {
          "indexed": false,
          "internalType": "bool",
          "name": "approved",
          "type": "bool"
        }
      ],
      "name": "ApprovalForAll",
      "type": "event"
    },
    {
      "anonymous": false,
      "inputs": [
        {
          "indexed": false,
          "internalType": "uint256",
          "name": "wordId",
          "type": "uint256"
        },
        {
          "indexed": false,
          "internalType": "string",
          "name": "title",
          "type": "string"
        },
        {
          "indexed": false,
          "internalType": "string",
          "name": "body",
          "type": "string"
        }
      ],
      "name": "NewWord",
      "type": "event"
    },
    {
      "anonymous": false,
      "inputs": [
        {
          "indexed": true,
          "internalType": "address",
          "name": "previousOwner",
          "type": "address"
        },
        {
          "indexed": true,
          "internalType": "address",
          "name": "newOwner",
          "type": "address"
        }
      ],
      "name": "OwnershipTransferred",
      "type": "event"
    },
    {
      "anonymous": false,
      "inputs": [
        {
          "indexed": true,
          "internalType": "address",
          "name": "from",
          "type": "address"
        },
        {
          "indexed": true,
          "internalType": "address",
          "name": "to",
          "type": "address"
        },
        {
          "indexed": true,
          "internalType": "uint256",
          "name": "tokenId",
          "type": "uint256"
        }
      ],
      "name": "Transfer",
      "type": "event"
    },
    {
      "inputs": [],
      "name": "CANNOT_TRANSFER_TO_ZERO_ADDRESS",
      "outputs": [
        {
          "internalType": "string",
          "name": "",
          "type": "string"
        }
      ],
      "stateMutability": "view",
      "type": "function",
      "constant": true
    },
    {
      "inputs": [],
      "name": "NOT_CURRENT_OWNER",
      "outputs": [
        {
          "internalType": "string",
          "name": "",
          "type": "string"
        }
      ],
      "stateMutability": "view",
      "type": "function",
      "constant": true
    },
    {
      "inputs": [
        {
          "internalType": "string",
          "name": "_title",
          "type": "string"
        },
        {
          "internalType": "string",
          "name": "_body",
          "type": "string"
        }
      ],
      "name": "createWord",
      "outputs": [],
      "stateMutability": "payable",
      "type": "function",
      "payable": true
    },
    {
      "inputs": [],
      "name": "getAllWords",
      "outputs": [
        {
          "components": [
            {
              "internalType": "string",
              "name": "title",
              "type": "string"
            },
            {
              "internalType": "string",
              "name": "body",
              "type": "string"
            },
            {
              "internalType": "uint32",
              "name": "timestamp",
              "type": "uint32"
            }
          ],
          "internalType": "struct Speak.Word[]",
          "name": "words",
          "type": "tuple[]"
        }
      ],
      "stateMutability": "view",
      "type": "function",
      "constant": true
    },
    {
      "inputs": [],
      "name": "getTopWords",
      "outputs": [
        {
          "components": [
            {
              "internalType": "string",
              "name": "title",
              "type": "string"
            },
            {
              "internalType": "string",
              "name": "body",
              "type": "string"
            },
            {
              "internalType": "uint32",
              "name": "timestamp",
              "type": "uint32"
            },
            {
              "internalType": "uint256",
              "name": "totalLikes",
              "type": "uint256"
            },
            {
              "internalType": "bool",
              "name": "liked",
              "type": "bool"
            }
          ],
          "internalType": "struct Speak.WordExtended[50]",
          "name": "wordsExtended",
          "type": "tuple[50]"
        }
      ],
      "stateMutability": "view",
      "type": "function",
      "constant": true
    },
    {
      "inputs": [
        {
          "internalType": "address",
          "name": "owner",
          "type": "address"
        }
      ],
      "name": "getWords",
      "outputs": [
        {
          "internalType": "string[12]",
          "name": "titleArray",
          "type": "string[12]"
        },
        {
          "internalType": "string[12]",
          "name": "bodyArray",
          "type": "string[12]"
        },
        {
          "internalType": "uint32[12]",
          "name": "timestampArray",
          "type": "uint32[12]"
        }
      ],
      "stateMutability": "view",
      "type": "function",
      "constant": true
    },
    {
      "inputs": [
        {
          "internalType": "uint256",
          "name": "wordId",
          "type": "uint256"
        }
      ],
      "name": "like",
      "outputs": [],
      "stateMutability": "nonpayable",
      "type": "function"
    },
    {
      "inputs": [],
      "name": "owner",
      "outputs": [
        {
          "internalType": "address",
          "name": "",
          "type": "address"
        }
      ],
      "stateMutability": "view",
      "type": "function",
      "constant": true
    },
    {
      "inputs": [
        {
          "internalType": "uint256",
          "name": "_fee",
          "type": "uint256"
        }
      ],
      "name": "setCreateWordFee",
      "outputs": [],
      "stateMutability": "nonpayable",
      "type": "function"
    },
    {
      "inputs": [
        {
          "internalType": "uint256",
          "name": "",
          "type": "uint256"
        }
      ],
      "name": "speakers",
      "outputs": [
        {
          "internalType": "address",
          "name": "",
          "type": "address"
        }
      ],
      "stateMutability": "view",
      "type": "function",
      "constant": true
    },
    {
      "inputs": [
        {
          "internalType": "uint256",
          "name": "",
          "type": "uint256"
        }
      ],
      "name": "topWords",
      "outputs": [
        {
          "internalType": "uint256",
          "name": "",
          "type": "uint256"
        }
      ],
      "stateMutability": "view",
      "type": "function",
      "constant": true
    },
    {
      "inputs": [
        {
          "internalType": "address",
          "name": "_newOwner",
          "type": "address"
        }
      ],
      "name": "transferOwnership",
      "outputs": [],
      "stateMutability": "nonpayable",
      "type": "function"
    },
    {
      "inputs": [
        {
          "internalType": "uint256",
          "name": "",
          "type": "uint256"
        }
      ],
      "name": "words",
      "outputs": [
        {
          "internalType": "string",
          "name": "title",
          "type": "string"
        },
        {
          "internalType": "string",
          "name": "body",
          "type": "string"
        },
        {
          "internalType": "uint32",
          "name": "timestamp",
          "type": "uint32"
        }
      ],
      "stateMutability": "view",
      "type": "function",
      "constant": true
    },
    {
      "inputs": [
        {
          "internalType": "address",
          "name": "owner",
          "type": "address"
        }
      ],
      "name": "balanceOf",
      "outputs": [
        {
          "internalType": "uint256",
          "name": "balance",
          "type": "uint256"
        }
      ],
      "stateMutability": "view",
      "type": "function",
      "constant": true
    },
    {
      "inputs": [
        {
          "internalType": "uint256",
          "name": "tokenId",
          "type": "uint256"
        }
      ],
      "name": "ownerOf",
      "outputs": [
        {
          "internalType": "address",
          "name": "owner",
          "type": "address"
        }
      ],
      "stateMutability": "view",
      "type": "function",
      "constant": true
    },
    {
      "inputs": [
        {
          "internalType": "address",
          "name": "from",
          "type": "address"
        },
        {
          "internalType": "address",
          "name": "to",
          "type": "address"
        },
        {
          "internalType": "uint256",
          "name": "tokenId",
          "type": "uint256"
        }
      ],
      "name": "transferFrom",
      "outputs": [],
      "stateMutability": "nonpayable",
      "type": "function"
    },
    {
      "inputs": [
        {
          "internalType": "address",
          "name": "to",
          "type": "address"
        },
        {
          "internalType": "uint256",
          "name": "tokenId",
          "type": "uint256"
        }
      ],
      "name": "approve",
      "outputs": [],
      "stateMutability": "nonpayable",
      "type": "function"
    },
    {
      "inputs": [
        {
          "internalType": "uint256",
          "name": "tokenId",
          "type": "uint256"
        }
      ],
      "name": "getApproved",
      "outputs": [
        {
          "internalType": "address",
          "name": "operator",
          "type": "address"
        }
      ],
      "stateMutability": "view",
      "type": "function",
      "constant": true
    },
    {
      "inputs": [
        {
          "internalType": "address",
          "name": "operator",
          "type": "address"
        },
        {
          "internalType": "bool",
          "name": "_approved",
          "type": "bool"
        }
      ],
      "name": "setApprovalForAll",
      "outputs": [],
      "stateMutability": "nonpayable",
      "type": "function"
    },
    {
      "inputs": [
        {
          "internalType": "address",
          "name": "owner",
          "type": "address"
        },
        {
          "internalType": "address",
          "name": "operator",
          "type": "address"
        }
      ],
      "name": "isApprovedForAll",
      "outputs": [
        {
          "internalType": "bool",
          "name": "",
          "type": "bool"
        }
      ],
      "stateMutability": "view",
      "type": "function",
      "constant": true
    },
    {
      "inputs": [
        {
          "internalType": "address",
          "name": "from",
          "type": "address"
        },
        {
          "internalType": "address",
          "name": "to",
          "type": "address"
        },
        {
          "internalType": "uint256",
          "name": "tokenId",
          "type": "uint256"
        }
      ],
      "name": "safeTransferFrom",
      "outputs": [],
      "stateMutability": "nonpayable",
      "type": "function"
    },
    {
      "inputs": [
        {
          "internalType": "address",
          "name": "from",
          "type": "address"
        },
        {
          "internalType": "address",
          "name": "to",
          "type": "address"
        },
        {
          "internalType": "uint256",
          "name": "tokenId",
          "type": "uint256"
        },
        {
          "internalType": "bytes",
          "name": "data",
          "type": "bytes"
        }
      ],
      "name": "safeTransferFrom",
      "outputs": [],
      "stateMutability": "nonpayable",
      "type": "function"
    },
    {
      "inputs": [
        {
          "internalType": "bytes4",
          "name": "interfaceId",
          "type": "bytes4"
        }
      ],
      "name": "supportsInterface",
      "outputs": [
        {
          "internalType": "bool",
          "name": "",
          "type": "bool"
        }
      ],
      "stateMutability": "view",
      "type": "function",
      "constant": true
    }
  ],
  "bytecode": "0x608060405266038d7ea4c680006001553480156200001c57600080fd5b50600080546001600160a01b031916331781556040805160a08101909152607280825262001ed66020830139905062000085604051806040016040528060118152602001702634b132b93a3c9037b3102bb7b932399760791b81525082620000dd60201b60201c565b50600080546006805460018101825592527ff652222313e28459528d920b65115c16c04f3efc82aaedc97be59f3f377c0d3f90910180546001600160a01b0319166001600160a01b03909216919091179055620003d3565b33600090815260046020526040902054600c11620000fa57600080fd5b60408051606081018252838152602080820184905263ffffffff42169282019290925260058054600181018255600091909152815180519293849360039093027f036b6384b5eca791c62761152d0c79bb0604c104a5fb6f4eb0703f3154bb3db001926200016c928492019062000240565b50602082810151805162000187926001850192019062000240565b506040918201516002909101805463ffffffff90921663ffffffff1990921691909117905560055460008181526003602090815283822080546001600160a01b031916339081179091558252600490529190912054620001e99060016200036f565b336000908152600460205260409081902091909155517fe56907e065195f17c6214f6cb67dc00d3bc03e571fbc508892d433f9bd39504090620002329083908790879062000336565b60405180910390a150505050565b8280546200024e9062000396565b90600052602060002090601f016020900481019282620002725760008555620002bd565b82601f106200028d57805160ff1916838001178555620002bd565b82800160010185558215620002bd579182015b82811115620002bd578251825591602001919060010190620002a0565b50620002cb929150620002cf565b5090565b5b80821115620002cb5760008155600101620002d0565b6000815180845260005b818110156200030e57602081850181015186830182015201620002f0565b8181111562000321576000602083870101525b50601f01601f19169290920160200192915050565b838152606060208201526000620003516060830185620002e6565b8281036040840152620003658185620002e6565b9695505050505050565b600082198211156200039157634e487b7160e01b600052601160045260246000fd5b500190565b600181811c90821680620003ab57607f821691505b60208210811415620003cd57634e487b7160e01b600052602260045260246000fd5b50919050565b611af380620003e36000396000f3fe6080604052600436106101105760003560e01c806301ffc9a714610115578063081812fc1461015b578063095ea7b3146101a957806323b872dd146101cb57806332d86b6e146101eb57806342842e0e1461020b5780634abaac331461022b57806351ac06501461024d57806359171a231461026d5780636352211e1461029b57806370a08231146102d157806375396776146102f1578063860d248a14610320578063884fc8381461035f5780638da5cb5b1461038e578063a22cb465146103ae578063b03594a7146103cd578063b88d4fde146103e9578063cae2ff0e14610409578063e82935da1461041c578063e985e9c51461043c578063f2fde38b1461045f578063f3fe3bc31461047f575b600080fd5b34801561012157600080fd5b506101466101303660046116a1565b6001600160e01b0319166301ffc9a760e01b1490565b60405190151581526020015b60405180910390f35b34801561016757600080fd5b5061019161017636600461172e565b6000908152603960205260409020546001600160a01b031690565b6040516001600160a01b039091168152602001610152565b3480156101b557600080fd5b506101c96101c4366004611677565b6104b1565b005b3480156101d757600080fd5b506101c96101e6366004611565565b610551565b3480156101f757600080fd5b506101c961020636600461172e565b610608565b34801561021757600080fd5b506101c9610226366004611565565b610660565b34801561023757600080fd5b50610240610771565b604051610152919061183e565b34801561025957600080fd5b5061019161026836600461172e565b610a85565b34801561027957600080fd5b5061028d61028836600461172e565b610aaf565b604051908152602001610152565b3480156102a757600080fd5b506101916102b636600461172e565b6000908152600360205260409020546001600160a01b031690565b3480156102dd57600080fd5b5061028d6102ec366004611510565b610ac6565b3480156102fd57600080fd5b5061031161030c366004611510565b610b1e565b604051610152939291906117da565b34801561032c57600080fd5b506103526040518060400160405280600681526020016518189c18181960d11b81525081565b604051610152919061196f565b34801561036b57600080fd5b5061037f61037a36600461172e565b610d85565b60405161015293929190611982565b34801561039a57600080fd5b50600054610191906001600160a01b031681565b3480156103ba57600080fd5b506101c96103c936600461163b565b5050565b3480156103d957600080fd5b50606060405161015291906118d8565b3480156103f557600080fd5b506101c96104043660046115a1565b610ed5565b6101c96104173660046116cb565b610f8e565b34801561042857600080fd5b506101c961043736600461172e565b610f98565b34801561044857600080fd5b50610146610457366004611532565b600092915050565b34801561046b57600080fd5b506101c961047a366004611510565b61102e565b34801561048b57600080fd5b506103526040518060400160405280600681526020016530313830303160d01b81525081565b60008181526003602052604090205481906001600160a01b03163314806104ee57506000818152603960205260409020546001600160a01b031633145b6104f757600080fd5b60008281526039602052604080822080546001600160a01b0319166001600160a01b0387169081179091559051849233917f8c5be1e5ebec7d5bd14f71427d1e84f3dd0314c0f7b2291e5b200ac8c7c3b9259190a4505050565b60008181526003602052604090205481906001600160a01b031633148061058e57506000818152603960205260409020546001600160a01b031633145b61059757600080fd5b6001600160a01b0383166105aa57600080fd5b600082815260036020908152604080832080546001600160a01b038089166001600160a01b03199283168117909355603990945282852080549091169055905185939192881691600080516020611a9e83398151915291a450505050565b60005460408051808201909152600681526530313830303160d01b6020820152906001600160a01b0316331461065a5760405162461bcd60e51b8152600401610651919061196f565b60405180910390fd5b50600155565b60008181526003602052604090205481906001600160a01b031633148061069d57506000818152603960205260409020546001600160a01b031633145b6106a657600080fd5b6000805b60065481101561070757846001600160a01b0316600682815481106106d1576106d1611a71565b6000918252602090912001546001600160a01b031614156106f55760019150610707565b806106ff81611a40565b9150506106aa565b508061071257600080fd5b600083815260036020908152604080832080546001600160a01b03808a166001600160a01b03199283168117909355603990945282852080549091169055905186939192891691600080516020611a9e83398151915291a45050505050565b610779611328565b610781611328565b60005b6032811015610a7f57600060026000600784603281106107a6576107a6611a71565b0154815260200190815260200160002080548060200260200160405190810160405280929190818152602001828054801561080a57602002820191906000526020600020905b81546001600160a01b031681526001909101906020018083116107ec575b505050505090506000805b825181101561086857336001600160a01b031683828151811061083a5761083a611a71565b60200260200101516001600160a01b0316141561085657600191505b8061086081611a40565b915050610815565b506040518060a0016040528060056007866032811061088957610889611a71565b01548154811061089b5761089b611a71565b906000526020600020906003020160000180546108b790611a0b565b80601f01602080910402602001604051908101604052809291908181526020018280546108e390611a0b565b80156109305780601f1061090557610100808354040283529160200191610930565b820191906000526020600020905b81548152906001019060200180831161091357829003601f168201915b5050505050815260200160056007866032811061094f5761094f611a71565b01548154811061096157610961611a71565b9060005260206000209060030201600101805461097d90611a0b565b80601f01602080910402602001604051908101604052809291908181526020018280546109a990611a0b565b80156109f65780601f106109cb576101008083540402835291602001916109f6565b820191906000526020600020905b8154815290600101906020018083116109d957829003601f168201915b50505050508152602001600560078660328110610a1557610a15611a71565b015481548110610a2757610a27611a71565b60009182526020918290206002600390920201015463ffffffff168252845190820152821515604090910152848460328110610a6557610a65611a71565b602002015250819050610a7781611a40565b915050610784565b50919050565b60068181548110610a9557600080fd5b6000918252602090912001546001600160a01b0316905081565b60078160328110610abf57600080fd5b0154905081565b600080805b600554811015610b17576000818152600360205260409020546001600160a01b0385811691161415610b055781610b0181611a40565b9250505b80610b0f81611a40565b915050610acb565b5092915050565b610b26611388565b610b2e611388565b610b366113b0565b610b3e611388565b610b46611388565b610b4e6113b0565b6000805b600554811015610d77576000818152600360205260409020546001600160a01b038a811691161415610d655760058181548110610b9157610b91611a71565b90600052602060002090600302016000018054610bad90611a0b565b80601f0160208091040260200160405190810160405280929190818152602001828054610bd990611a0b565b8015610c265780601f10610bfb57610100808354040283529160200191610c26565b820191906000526020600020905b815481529060010190602001808311610c0957829003601f168201915b50505050508583600c8110610c3d57610c3d611a71565b60200201526005805482908110610c5657610c56611a71565b90600052602060002090600302016001018054610c7290611a0b565b80601f0160208091040260200160405190810160405280929190818152602001828054610c9e90611a0b565b8015610ceb5780601f10610cc057610100808354040283529160200191610ceb565b820191906000526020600020905b815481529060010190602001808311610cce57829003601f168201915b50505050508483600c8110610d0257610d02611a71565b60200201526005805482908110610d1b57610d1b611a71565b600091825260209091206002600390920201015463ffffffff168383600c8110610d4757610d47611a71565b63ffffffff909216602092909202015281610d6181611a40565b9250505b80610d6f81611a40565b915050610b52565b509297919650945092505050565b60058181548110610d9557600080fd5b9060005260206000209060030201600091509050806000018054610db890611a0b565b80601f0160208091040260200160405190810160405280929190818152602001828054610de490611a0b565b8015610e315780601f10610e0657610100808354040283529160200191610e31565b820191906000526020600020905b815481529060010190602001808311610e1457829003601f168201915b505050505090806001018054610e4690611a0b565b80601f0160208091040260200160405190810160405280929190818152602001828054610e7290611a0b565b8015610ebf5780601f10610e9457610100808354040283529160200191610ebf565b820191906000526020600020905b815481529060010190602001808311610ea257829003601f168201915b5050506002909301549192505063ffffffff1683565b60008381526003602052604090205483906001600160a01b0316331480610f1257506000818152603960205260409020546001600160a01b031633145b610f1b57600080fd5b6001600160a01b038516610f2e57600080fd5b600084815260036020908152604080832080546001600160a01b03808b166001600160a01b031992831681179093556039909452828520805490911690559051879391928a1691600080516020611a9e83398151915291a4505050505050565b6103c98282611118565b6000818152600260205260408120905b8154811015610ff657818181548110610fc357610fc3611a71565b6000918252602090912001546001600160a01b0316331415610fe457505050565b80610fee81611a40565b915050610fa8565b5060008281526002602090815260408220805460018101825590835291200180546001600160a01b031916331790556103c982611272565b60005460408051808201909152600681526530313830303160d01b6020820152906001600160a01b031633146110775760405162461bcd60e51b8152600401610651919061196f565b5060408051808201909152600681526518189c18181960d11b60208201526001600160a01b0382166110bc5760405162461bcd60e51b8152600401610651919061196f565b50600080546040516001600160a01b03808516939216917f8be0079c531659141344cd1fd0a4f28419497f9722a3daafe3b4186f6b6457e091a3600080546001600160a01b0319166001600160a01b0392909216919091179055565b33600090815260046020526040902054600c1161113457600080fd5b60408051606081018252838152602080820184905263ffffffff42169282019290925260058054600181018255600091909152815180519293849360039093027f036b6384b5eca791c62761152d0c79bb0604c104a5fb6f4eb0703f3154bb3db001926111a492849201906113cf565b5060208281015180516111bd92600185019201906113cf565b506040918201516002909101805463ffffffff90921663ffffffff1990921691909117905560055460008181526003602090815283822080546001600160a01b03191633908117909155825260049052919091205461121d9060016119f3565b336000908152600460205260409081902091909155517fe56907e065195f17c6214f6cb67dc00d3bc03e571fbc508892d433f9bd39504090611264908390879087906119be565b60405180910390a150505050565b6007546000818152600260205260409020549060015b60328110156112f557600060026000600784603281106112aa576112aa611a71565b015481526020810191909152604001600020549050808411156112e257809350600782603281106112dd576112dd611a71565b015492505b50806112ed81611a40565b915050611288565b5060008381526002602052604090205482101561132357826007826032811061132057611320611a71565b01555b505050565b6040518061064001604052806032905b6113726040518060a001604052806060815260200160608152602001600063ffffffff168152602001600081526020016000151581525090565b8152602001906001900390816113385790505090565b604051806101800160405280600c905b60608152602001906001900390816113985790505090565b604051806101800160405280600c906020820280368337509192915050565b8280546113db90611a0b565b90600052602060002090601f0160209004810192826113fd5760008555611443565b82601f1061141657805160ff1916838001178555611443565b82800160010185558215611443579182015b82811115611443578251825591602001919060010190611428565b5061144f929150611453565b5090565b5b8082111561144f5760008155600101611454565b80356001600160a01b038116811461147f57600080fd5b919050565b600082601f83011261149557600080fd5b81356001600160401b03808211156114af576114af611a87565b604051601f8301601f19908116603f011681019082821181831017156114d7576114d7611a87565b816040528381528660208588010111156114f057600080fd5b836020870160208301376000602085830101528094505050505092915050565b60006020828403121561152257600080fd5b61152b82611468565b9392505050565b6000806040838503121561154557600080fd5b61154e83611468565b915061155c60208401611468565b90509250929050565b60008060006060848603121561157a57600080fd5b61158384611468565b925061159160208501611468565b9150604084013590509250925092565b6000806000806000608086880312156115b957600080fd5b6115c286611468565b94506115d060208701611468565b93506040860135925060608601356001600160401b03808211156115f357600080fd5b818801915088601f83011261160757600080fd5b81358181111561161657600080fd5b89602082850101111561162857600080fd5b9699959850939650602001949392505050565b6000806040838503121561164e57600080fd5b61165783611468565b91506020830135801515811461166c57600080fd5b809150509250929050565b6000806040838503121561168a57600080fd5b61169383611468565b946020939093013593505050565b6000602082840312156116b357600080fd5b81356001600160e01b03198116811461152b57600080fd5b600080604083850312156116de57600080fd5b82356001600160401b03808211156116f557600080fd5b61170186838701611484565b9350602085013591508082111561171757600080fd5b5061172485828601611484565b9150509250929050565b60006020828403121561174057600080fd5b5035919050565b60008261018081018360005b600c81101561178257838303875261176c83835161178d565b6020978801979093509190910190600101611753565b509095945050505050565b6000815180845260005b818110156117b357602081850181015186830182015201611797565b818111156117c5576000602083870101525b50601f01601f19169290920160200192915050565b60006101c08083526117ee81840187611747565b90506020838203818501526118038287611747565b92506040840191508460005b600c81101561183257815163ffffffff168452928201929082019060010161180f565b50505050949350505050565b6020808252600090610660830183820185845b60328110156118cc57601f19878503018352815160a081518187526118788288018261178d565b9150508682015186820388880152611890828261178d565b60408481015163ffffffff1690890152606080850151908901526080938401511515939097019290925250509184019190840190600101611851565b50919695505050505050565b60006020808301818452808551808352604092508286019150828160051b87010184880160005b8381101561196157603f198984030185528151606081518186526119258287018261178d565b915050888201518582038a87015261193d828261178d565b9289015163ffffffff169589019590955250948701949250908601906001016118ff565b509098975050505050505050565b60208152600061152b602083018461178d565b606081526000611995606083018661178d565b82810360208401526119a7818661178d565b91505063ffffffff83166040830152949350505050565b8381526060602082015260006119d7606083018561178d565b82810360408401526119e9818561178d565b9695505050505050565b60008219821115611a0657611a06611a5b565b500190565b600181811c90821680611a1f57607f821691505b60208210811415610a7f57634e487b7160e01b600052602260045260246000fd5b6000600019821415611a5457611a54611a5b565b5060010190565b634e487b7160e01b600052601160045260246000fd5b634e487b7160e01b600052603260045260246000fd5b634e487b7160e01b600052604160045260246000fdfeddf252ad1be2c89b69c2b068fc378daa952ba7f163c4a11628f55a4df523b3efa2646970667358221220e1aa035bc49a2018110afb2483dfbca8dacf96c208ab7b144616084f82e6d51564736f6c634300080600334966206c696265727479206d65616e7320616e797468696e6720617420616c6c2c206974206d65616e732074686520726967687420746f2074656c6c2070656f706c652077686174207468657920646f206e6f742077616e7420746f20686561722e207e2047656f726765204f7277656c6c",
  "immutableReferences": {},
  "source": "pragma solidity ^0.8.0;\n\nimport \"./speak.sol\";\nimport \"openzeppelin-solidity/contracts/token/ERC721/ERC721.sol\";\nimport \"openzeppelin-solidity/contracts/utils/math/SafeCast.sol\";\nimport \"openzeppelin-solidity/contracts/utils/math/SafeMath.sol\";\n\n\n\ncontract SpeakIERC721 is Speak, IERC721 {\n\n    using SafeMath for uint256;\n\n    mapping (uint => address) wordToApproved;\n\n\n    // STATE VARIABLES\n    constructor() {\n        \n    }\n\n    modifier validOperator(uint256 tokenId) {\n        require(msg.sender == wordToOwner[tokenId] || msg.sender == wordToApproved[tokenId]);\n        _;\n    }\n\n    // IERC721 Implementation\n    function balanceOf(address owner) external view override returns (uint256 balance) {\n        uint256 count = 0; \n        for (uint256 index = 0; index < words.length; index++) {\n            if (wordToOwner[index] == owner) {\n                count++;\n            }\n        }\n        return count;\n    }\n\n    function ownerOf(uint256 tokenId) external view override returns (address owner){\n        return wordToOwner[tokenId];\n    }\n\n    function safeTransferFrom(address from, address to, uint256 tokenId) external override validOperator(tokenId) {\n        bool validAddress = false;\n        for (uint256 index; index < speakers.length; index++) {\n            if (speakers[index] == to) {\n                validAddress = true;\n                break;\n            }\n        }\n        require(validAddress);\n        wordToOwner[tokenId] = to;\n        wordToApproved[tokenId] = address(0);\n        emit Transfer(from, to, tokenId);\n    }\n\n    function transferFrom(address from, address to, uint256 tokenId) external override validOperator(tokenId) {\n        require(to != address(0));\n        wordToOwner[tokenId] = to;\n        wordToApproved[tokenId] = address(0);\n        emit Transfer(from, to, tokenId);\n    }\n\n    function approve(address to, uint256 tokenId) external override validOperator(tokenId) {\n        wordToApproved[tokenId] = to;\n        emit Approval(msg.sender, to, tokenId);\n    }\n\n    function getApproved(uint256 tokenId) external view override returns (address operator) {\n        return wordToApproved[tokenId];\n    }\n\n    function setApprovalForAll(address operator, bool _approved) external override {\n    }\n\n    function isApprovedForAll(address owner, address operator) external view override returns (bool) {\n\n    }\n\n    function safeTransferFrom(address from, address to, uint256 tokenId, bytes calldata data) external override validOperator(tokenId) {\n        require(to != address(0));\n        wordToOwner[tokenId] = to;\n        wordToApproved[tokenId] = address(0);\n        emit Transfer(from, to, tokenId);\n    }\n\n    // IERC165\n    function supportsInterface(bytes4 interfaceId) external view override returns (bool){\n        return interfaceId == this.supportsInterface.selector;\n    }\n\n}\n",
  "sourcePath": "/Users/joe/projects/makeschool/BEW2-4/speak_ERC-721/speak/contracts/SpeakIERC721.sol",
  "compiler": {
    "name": "solc",
    "version": "0.8.6+commit.11564f7e.Emscripten.clang"
  },
  "schemaVersion": "3.4.1",
  "updatedAt": "2021-07-10T04:16:37.592Z",
  "networkType": "ethereum",
  "devdoc": {
    "kind": "dev",
    "methods": {
      "approve(address,uint256)": {
        "details": "Gives permission to `to` to transfer `tokenId` token to another account. The approval is cleared when the token is transferred. Only a single account can be approved at a time, so approving the zero address clears previous approvals. Requirements: - The caller must own the token or be an approved operator. - `tokenId` must exist. Emits an {Approval} event."
      },
      "balanceOf(address)": {
        "details": "Returns the number of tokens in ``owner``'s account."
      },
      "getApproved(uint256)": {
        "details": "Returns the account approved for `tokenId` token. Requirements: - `tokenId` must exist."
      },
      "isApprovedForAll(address,address)": {
        "details": "Returns if the `operator` is allowed to manage all of the assets of `owner`. See {setApprovalForAll}"
      },
      "ownerOf(uint256)": {
        "details": "Returns the owner of the `tokenId` token. Requirements: - `tokenId` must exist."
      },
      "safeTransferFrom(address,address,uint256)": {
        "details": "Safely transfers `tokenId` token from `from` to `to`, checking first that contract recipients are aware of the ERC721 protocol to prevent tokens from being forever locked. Requirements: - `from` cannot be the zero address. - `to` cannot be the zero address. - `tokenId` token must exist and be owned by `from`. - If the caller is not `from`, it must be have been allowed to move this token by either {approve} or {setApprovalForAll}. - If `to` refers to a smart contract, it must implement {IERC721Receiver-onERC721Received}, which is called upon a safe transfer. Emits a {Transfer} event."
      },
      "safeTransferFrom(address,address,uint256,bytes)": {
        "details": "Safely transfers `tokenId` token from `from` to `to`. Requirements: - `from` cannot be the zero address. - `to` cannot be the zero address. - `tokenId` token must exist and be owned by `from`. - If the caller is not `from`, it must be approved to move this token by either {approve} or {setApprovalForAll}. - If `to` refers to a smart contract, it must implement {IERC721Receiver-onERC721Received}, which is called upon a safe transfer. Emits a {Transfer} event."
      },
      "setApprovalForAll(address,bool)": {
        "details": "Approve or remove `operator` as an operator for the caller. Operators can call {transferFrom} or {safeTransferFrom} for any token owned by the caller. Requirements: - The `operator` cannot be the caller. Emits an {ApprovalForAll} event."
      },
      "supportsInterface(bytes4)": {
        "details": "Returns true if this contract implements the interface defined by `interfaceId`. See the corresponding https://eips.ethereum.org/EIPS/eip-165#how-interfaces-are-identified[EIP section] to learn more about how these ids are created. This function call must use less than 30 000 gas."
      },
      "transferFrom(address,address,uint256)": {
        "details": "Transfers `tokenId` token from `from` to `to`. WARNING: Usage of this method is discouraged, use {safeTransferFrom} whenever possible. Requirements: - `from` cannot be the zero address. - `to` cannot be the zero address. - `tokenId` token must be owned by `from`. - If the caller is not `from`, it must be approved to move this token by either {approve} or {setApprovalForAll}. Emits a {Transfer} event."
      },
      "transferOwnership(address)": {
        "details": "Allows the current owner to transfer control of the contract to a newOwner.",
        "params": {
          "_newOwner": "The address to transfer ownership to."
        }
      }
    },
    "version": 1
  },
  "userdoc": {
    "kind": "user",
    "methods": {},
    "version": 1
  }
}