{
  "contractName": "SpeakWordManager",
  "abi": [
    {
      "inputs": [],
      "stateMutability": "nonpayable",
      "type": "constructor"
    },
    {
      "anonymous": false,
      "inputs": [
        {
          "indexed": false,
          "internalType": "uint256",
          "name": "wordId",
          "type": "uint256"
        },
        {
          "indexed": false,
          "internalType": "string",
          "name": "title",
          "type": "string"
        },
        {
          "indexed": false,
          "internalType": "string",
          "name": "body",
          "type": "string"
        },
        {
          "indexed": false,
          "internalType": "address",
          "name": "owner",
          "type": "address"
        }
      ],
      "name": "NewWord",
      "type": "event"
    },
    {
      "anonymous": false,
      "inputs": [
        {
          "indexed": true,
          "internalType": "address",
          "name": "previousOwner",
          "type": "address"
        },
        {
          "indexed": true,
          "internalType": "address",
          "name": "newOwner",
          "type": "address"
        }
      ],
      "name": "OwnershipTransferred",
      "type": "event"
    },
    {
      "inputs": [],
      "name": "CANNOT_TRANSFER_TO_ZERO_ADDRESS",
      "outputs": [
        {
          "internalType": "string",
          "name": "",
          "type": "string"
        }
      ],
      "stateMutability": "view",
      "type": "function"
    },
    {
      "inputs": [],
      "name": "NOT_CURRENT_OWNER",
      "outputs": [
        {
          "internalType": "string",
          "name": "",
          "type": "string"
        }
      ],
      "stateMutability": "view",
      "type": "function"
    },
    {
      "inputs": [],
      "name": "owner",
      "outputs": [
        {
          "internalType": "address",
          "name": "",
          "type": "address"
        }
      ],
      "stateMutability": "view",
      "type": "function"
    },
    {
      "inputs": [
        {
          "internalType": "uint256",
          "name": "",
          "type": "uint256"
        }
      ],
      "name": "speakers",
      "outputs": [
        {
          "internalType": "address",
          "name": "",
          "type": "address"
        }
      ],
      "stateMutability": "view",
      "type": "function"
    },
    {
      "inputs": [
        {
          "internalType": "uint256",
          "name": "",
          "type": "uint256"
        }
      ],
      "name": "topWords",
      "outputs": [
        {
          "internalType": "uint256",
          "name": "",
          "type": "uint256"
        }
      ],
      "stateMutability": "view",
      "type": "function"
    },
    {
      "inputs": [
        {
          "internalType": "address",
          "name": "_newOwner",
          "type": "address"
        }
      ],
      "name": "transferOwnership",
      "outputs": [],
      "stateMutability": "nonpayable",
      "type": "function"
    },
    {
      "inputs": [
        {
          "internalType": "uint256",
          "name": "",
          "type": "uint256"
        }
      ],
      "name": "words",
      "outputs": [
        {
          "internalType": "string",
          "name": "title",
          "type": "string"
        },
        {
          "internalType": "string",
          "name": "body",
          "type": "string"
        },
        {
          "internalType": "uint32",
          "name": "timestamp",
          "type": "uint32"
        }
      ],
      "stateMutability": "view",
      "type": "function"
    },
    {
      "inputs": [
        {
          "internalType": "string",
          "name": "_title",
          "type": "string"
        },
        {
          "internalType": "string",
          "name": "_body",
          "type": "string"
        }
      ],
      "name": "createWord",
      "outputs": [],
      "stateMutability": "payable",
      "type": "function"
    },
    {
      "inputs": [
        {
          "internalType": "uint256",
          "name": "wordId",
          "type": "uint256"
        }
      ],
      "name": "like",
      "outputs": [
        {
          "internalType": "bool",
          "name": "result",
          "type": "bool"
        }
      ],
      "stateMutability": "nonpayable",
      "type": "function"
    },
    {
      "inputs": [],
      "name": "getTopWords",
      "outputs": [
        {
          "internalType": "uint256[50]",
          "name": "wordIdArray",
          "type": "uint256[50]"
        },
        {
          "internalType": "string[50]",
          "name": "titleArray",
          "type": "string[50]"
        },
        {
          "internalType": "string[50]",
          "name": "bodyArray",
          "type": "string[50]"
        },
        {
          "internalType": "uint32[50]",
          "name": "timestampArray",
          "type": "uint32[50]"
        },
        {
          "internalType": "uint256[50]",
          "name": "totalLikesArray",
          "type": "uint256[50]"
        },
        {
          "internalType": "bool[50]",
          "name": "likedArray",
          "type": "bool[50]"
        }
      ],
      "stateMutability": "view",
      "type": "function"
    },
    {
      "inputs": [],
      "name": "getRecentWords",
      "outputs": [
        {
          "internalType": "uint256[50]",
          "name": "wordIdArray",
          "type": "uint256[50]"
        },
        {
          "internalType": "string[50]",
          "name": "titleArray",
          "type": "string[50]"
        },
        {
          "internalType": "string[50]",
          "name": "bodyArray",
          "type": "string[50]"
        },
        {
          "internalType": "uint32[50]",
          "name": "timestampArray",
          "type": "uint32[50]"
        },
        {
          "internalType": "uint256[50]",
          "name": "totalLikesArray",
          "type": "uint256[50]"
        },
        {
          "internalType": "bool[50]",
          "name": "likedArray",
          "type": "bool[50]"
        }
      ],
      "stateMutability": "view",
      "type": "function"
    },
    {
      "inputs": [
        {
          "internalType": "address",
          "name": "owner",
          "type": "address"
        }
      ],
      "name": "getWords",
      "outputs": [
        {
          "internalType": "uint256[1000]",
          "name": "wordIdArray",
          "type": "uint256[1000]"
        },
        {
          "internalType": "string[1000]",
          "name": "titleArray",
          "type": "string[1000]"
        },
        {
          "internalType": "string[1000]",
          "name": "bodyArray",
          "type": "string[1000]"
        },
        {
          "internalType": "uint32[1000]",
          "name": "timestampArray",
          "type": "uint32[1000]"
        }
      ],
      "stateMutability": "view",
      "type": "function"
    },
    {
      "inputs": [],
      "name": "getAllWords",
      "outputs": [
        {
          "components": [
            {
              "internalType": "string",
              "name": "title",
              "type": "string"
            },
            {
              "internalType": "string",
              "name": "body",
              "type": "string"
            },
            {
              "internalType": "uint32",
              "name": "timestamp",
              "type": "uint32"
            }
          ],
          "internalType": "struct SpeakWordManager.Word[]",
          "name": "words",
          "type": "tuple[]"
        }
      ],
      "stateMutability": "view",
      "type": "function"
    },
    {
      "inputs": [
        {
          "internalType": "uint256",
          "name": "_fee",
          "type": "uint256"
        }
      ],
      "name": "setCreateWordFee",
      "outputs": [],
      "stateMutability": "nonpayable",
      "type": "function"
    }
  ],
  "bytecode": "0x608060405266038d7ea4c680006001553480156200001c57600080fd5b50600080546001600160a01b031916331781556040805160a08101909152607280825262001ed66020830139905062000085604051806040016040528060118152602001702634b132b93a3c9037b3102bb7b932399760791b815250826200008c60201b60201c565b50620004c5565b336000908152600460205260409020546103e811620000aa57600080fd5b60408051606081018252838152602080820184905263ffffffff42169282019290925260058054600181018255600091909152815180519293849360039093027f036b6384b5eca791c62761152d0c79bb0604c104a5fb6f4eb0703f3154bb3db001926200011c9284920190620002e4565b506020828101518051620001379260018501920190620002e4565b506040918201516002918201805463ffffffff191663ffffffff9092169190911790556005546000818152600360209081528482208054336001600160a01b0319918216811790925594825285832080546001818101835591855283852001805490961682179095558252600490529290922054620001b69162000423565b33600090815260046020526040902055620001d06200022e565b600081815260036020526040908190205490517f81519a1f48c791d544e19b36ffa377cd5f6d15ab057b9034eff84f019eb9379f9162000220918491889188916001600160a01b031690620003da565b60405180910390a150505050565b60005b6006548110156200029057336001600160a01b0316600682815481106200025c576200025c620004af565b6000918252602090912001546001600160a01b031614156200027b5750565b8062000287816200047b565b91505062000231565b50600080546006805460018101825592527ff652222313e28459528d920b65115c16c04f3efc82aaedc97be59f3f377c0d3f90910180546001600160a01b0319166001600160a01b03909216919091179055565b828054620002f2906200043e565b90600052602060002090601f01602090048101928262000316576000855562000361565b82601f106200033157805160ff191683800117855562000361565b8280016001018555821562000361579182015b828111156200036157825182559160200191906001019062000344565b506200036f92915062000373565b5090565b5b808211156200036f576000815560010162000374565b6000815180845260005b81811015620003b25760208185018101518683018201520162000394565b81811115620003c5576000602083870101525b50601f01601f19169290920160200192915050565b848152608060208201526000620003f560808301866200038a565b82810360408401526200040981866200038a565b91505060018060a01b038316606083015295945050505050565b6000821982111562000439576200043962000499565b500190565b600181811c908216806200045357607f821691505b602082108114156200047557634e487b7160e01b600052602260045260246000fd5b50919050565b600060001982141562000492576200049262000499565b5060010190565b634e487b7160e01b600052601160045260246000fd5b634e487b7160e01b600052603260045260246000fd5b611a0180620004d56000396000f3fe6080604052600436106100ad5760003560e01c806332d86b6e146100b25780634abaac33146100d457806351ac06501461010457806359171a231461013c578063753967761461016a578063860d248a1461019a578063884fc838146101d95780638da5cb5b14610208578063b03594a714610228578063cae2ff0e14610244578063e82935da14610257578063f2fde38b14610287578063f3fe3bc3146102a7578063f6967d1d146102d9575b600080fd5b3480156100be57600080fd5b506100d26100cd36600461156e565b6102ee565b005b3480156100e057600080fd5b506100e9610346565b6040516100fb969594939291906117a8565b60405180910390f35b34801561011057600080fd5b5061012461011f36600461156e565b6107aa565b6040516001600160a01b0390911681526020016100fb565b34801561014857600080fd5b5061015c61015736600461156e565b6107d4565b6040519081526020016100fb565b34801561017657600080fd5b5061018a6101853660046114db565b6107f5565b6040516100fb9493929190611716565b3480156101a657600080fd5b506101cc6040518060400160405280600681526020016518189c18181960d11b81525081565b6040516100fb9190611859565b3480156101e557600080fd5b506101f96101f436600461156e565b610a8c565b6040516100fb9392919061186c565b34801561021457600080fd5b50600054610124906001600160a01b031681565b34801561023457600080fd5b5060606040516100fb919061167f565b6100d261025236600461150b565b610bdc565b34801561026357600080fd5b5061027761027236600461156e565b610bea565b60405190151581526020016100fb565b34801561029357600080fd5b506100d26102a23660046114db565b610c91565b3480156102b357600080fd5b506101cc6040518060400160405280600681526020016530313830303160d01b81525081565b3480156102e557600080fd5b506100e9610d7b565b60005460408051808201909152600681526530313830303160d01b6020820152906001600160a01b031633146103405760405162461bcd60e51b81526004016103379190611859565b60405180910390fd5b50600155565b61034e611333565b610356611352565b61035e611352565b610366611333565b61036e611333565b610376611333565b61037e611333565b610386611352565b61038e611352565b610396611333565b61039e611333565b6103a6611333565b60008060005b6005548110156107935760008181526002602090815260408083208054825181850281018501909352808352919290919083018282801561041657602002820191906000526020600020905b81546001600160a01b031681526001909101906020018083116103f8575b50505050509050603282108061042c5750838151115b1561078057603282101561044657819250805193506104fe565b60005b60328110156104fc576000600260008d846032811061046a5761046a61199f565b602002015181526020019081526020016000208054806020026020016040519081016040528092919081815260200182805480156104d157602002820191906000526020600020905b81546001600160a01b031681526001909101906020018083116104b3575b5050505050905085815110156104e957819450805195505b50806104f48161196e565b915050610449565b505b6000805b825181101561055557336001600160a01b03168382815181106105275761052761199f565b60200260200101516001600160a01b0316141561054357600191505b8061054d8161196e565b915050610502565b50828b85603281106105695761056961199f565b602002015260058054849081106105825761058261199f565b9060005260206000209060030201600001805461059e90611933565b80601f01602080910402602001604051908101604052809291908181526020018280546105ca90611933565b80156106175780601f106105ec57610100808354040283529160200191610617565b820191906000526020600020905b8154815290600101906020018083116105fa57829003601f168201915b50505050508a856032811061062e5761062e61199f565b602002015260058054849081106106475761064761199f565b9060005260206000209060030201600101805461066390611933565b80601f016020809104026020016040519081016040528092919081815260200182805461068f90611933565b80156106dc5780601f106106b1576101008083540402835291602001916106dc565b820191906000526020600020905b8154815290600101906020018083116106bf57829003601f168201915b50505050508985603281106106f3576106f361199f565b6020020152600580548490811061070c5761070c61199f565b600091825260209091206002600390920201015463ffffffff168885603281106107385761073861199f565b63ffffffff9092166020929092020152815187856032811061075c5761075c61199f565b6020020152808685603281106107745761077461199f565b91151560209092020152505b508061078b8161196e565b9150506103ac565b50969d959c50939a50919850965094509092505050565b600681815481106107ba57600080fd5b6000918252602090912001546001600160a01b0316905081565b600781815481106107e457600080fd5b600091825260209091200154905081565b6107fd61137a565b61080561139a565b61080d61139a565b61081561137a565b61081d61137a565b61082561139a565b61082d61139a565b61083561137a565b6000805b600554811015610a7b576000818152600360205260409020546001600160a01b038c811691161415610a69578086836103e881106108795761087961199f565b602002015260058054829081106108925761089261199f565b906000526020600020906003020160000180546108ae90611933565b80601f01602080910402602001604051908101604052809291908181526020018280546108da90611933565b80156109275780601f106108fc57610100808354040283529160200191610927565b820191906000526020600020905b81548152906001019060200180831161090a57829003601f168201915b505050505085836103e8811061093f5761093f61199f565b602002015260058054829081106109585761095861199f565b9060005260206000209060030201600101805461097490611933565b80601f01602080910402602001604051908101604052809291908181526020018280546109a090611933565b80156109ed5780601f106109c2576101008083540402835291602001916109ed565b820191906000526020600020905b8154815290600101906020018083116109d057829003601f168201915b505050505084836103e88110610a0557610a0561199f565b60200201526005805482908110610a1e57610a1e61199f565b600091825260209091206002600390920201015463ffffffff1683836103e88110610a4b57610a4b61199f565b63ffffffff909216602092909202015281610a658161196e565b9250505b80610a738161196e565b915050610839565b509399929850909650945092505050565b60058181548110610a9c57600080fd5b9060005260206000209060030201600091509050806000018054610abf90611933565b80601f0160208091040260200160405190810160405280929190818152602001828054610aeb90611933565b8015610b385780601f10610b0d57610100808354040283529160200191610b38565b820191906000526020600020905b815481529060010190602001808311610b1b57829003601f168201915b505050505090806001018054610b4d90611933565b80601f0160208091040260200160405190810160405280929190818152602001828054610b7990611933565b8015610bc65780601f10610b9b57610100808354040283529160200191610bc6565b820191906000526020600020905b815481529060010190602001808311610ba957829003601f168201915b5050506002909301549192505063ffffffff1683565b610be682826110ee565b5050565b6000805b600083815260026020526040902054811015610c5b576000838152600260205260409020805482908110610c2457610c2461199f565b6000918252602090912001546001600160a01b0316331415610c495750600092915050565b80610c538161196e565b915050610bee565b505060009081526002602090815260408220805460018181018355918452919092200180546001600160a01b0319163317905590565b60005460408051808201909152600681526530313830303160d01b6020820152906001600160a01b03163314610cda5760405162461bcd60e51b81526004016103379190611859565b5060408051808201909152600681526518189c18181960d11b60208201526001600160a01b038216610d1f5760405162461bcd60e51b81526004016103379190611859565b50600080546040516001600160a01b03808516939216917f8be0079c531659141344cd1fd0a4f28419497f9722a3daafe3b4186f6b6457e091a3600080546001600160a01b0319166001600160a01b0392909216919091179055565b610d83611333565b610d8b611352565b610d93611352565b610d9b611333565b610da3611333565b610dab611333565b610db3611333565b610dbb611352565b610dc3611352565b610dcb611333565b610dd3611333565b610ddb611333565b6005546000906032811015610df257506000610e00565b610dfd603382611905565b90505b600554600090610e1290600190611905565b90505b818110610793576000805b600083815260026020526040902054811015610e8b576000838152600260205260409020805433919083908110610e5957610e5961199f565b6000918252602090912001546001600160a01b03161415610e7957600191505b80610e838161196e565b915050610e20565b50818a8560328110610e9f57610e9f61199f565b60200201526005805483908110610eb857610eb861199f565b90600052602060002090600302016000018054610ed490611933565b80601f0160208091040260200160405190810160405280929190818152602001828054610f0090611933565b8015610f4d5780601f10610f2257610100808354040283529160200191610f4d565b820191906000526020600020905b815481529060010190602001808311610f3057829003601f168201915b5050505050898560328110610f6457610f6461199f565b60200201526005805483908110610f7d57610f7d61199f565b90600052602060002090600302016001018054610f9990611933565b80601f0160208091040260200160405190810160405280929190818152602001828054610fc590611933565b80156110125780601f10610fe757610100808354040283529160200191611012565b820191906000526020600020905b815481529060010190602001808311610ff557829003601f168201915b50505050508885603281106110295761102961199f565b602002015260058054839081106110425761104261199f565b600091825260209091206002600390920201015463ffffffff1687856032811061106e5761106e61199f565b63ffffffff909216602092830291909101526000838152600290915260409020548685603281106110a1576110a161199f565b6020020152808585603281106110b9576110b961199f565b91151560209092020152836110cd8161196e565b945050816110db5750610793565b50806110e68161191c565b915050610e15565b336000908152600460205260409020546103e81161110b57600080fd5b60408051606081018252838152602080820184905263ffffffff42169282019290925260058054600181018255600091909152815180519293849360039093027f036b6384b5eca791c62761152d0c79bb0604c104a5fb6f4eb0703f3154bb3db0019261117b92849201906113b6565b50602082810151805161119492600185019201906113b6565b506040918201516002918201805463ffffffff191663ffffffff9092169190911790556005546000818152600360209081528482208054336001600160a01b0319918216811790925594825285832080546001818101835591855283852001805490961682179095558252600490529290922054611211916118ed565b33600090815260046020526040902055611229611285565b600081815260036020526040908190205490517f81519a1f48c791d544e19b36ffa377cd5f6d15ab057b9034eff84f019eb9379f91611277918491889188916001600160a01b0316906118a8565b60405180910390a150505050565b60005b6006548110156112df57336001600160a01b0316600682815481106112af576112af61199f565b6000918252602090912001546001600160a01b031614156112cd5750565b806112d78161196e565b915050611288565b50600080546006805460018101825592527ff652222313e28459528d920b65115c16c04f3efc82aaedc97be59f3f377c0d3f90910180546001600160a01b0319166001600160a01b03909216919091179055565b6040518061064001604052806032906020820280368337509192915050565b6040518061064001604052806032905b60608152602001906001900390816113625790505090565b60405180617d0001604052806103e8906020820280368337509192915050565b60408051617d008101909152606081526103e760208201611362565b8280546113c290611933565b90600052602060002090601f0160209004810192826113e4576000855561142a565b82601f106113fd57805160ff191683800117855561142a565b8280016001018555821561142a579182015b8281111561142a57825182559160200191906001019061140f565b5061143692915061143a565b5090565b5b80821115611436576000815560010161143b565b600082601f83011261146057600080fd5b81356001600160401b038082111561147a5761147a6119b5565b604051601f8301601f19908116603f011681019082821181831017156114a2576114a26119b5565b816040528381528660208588010111156114bb57600080fd5b836020870160208301376000602085830101528094505050505092915050565b6000602082840312156114ed57600080fd5b81356001600160a01b038116811461150457600080fd5b9392505050565b6000806040838503121561151e57600080fd5b82356001600160401b038082111561153557600080fd5b6115418683870161144f565b9350602085013591508082111561155757600080fd5b506115648582860161144f565b9150509250929050565b60006020828403121561158057600080fd5b5035919050565b600082617d0081018360005b6103e88110156115c35783830387526115ad838351611632565b6020978801979093509190910190600101611593565b509095945050505050565b60008261064081018360005b60328110156115c35783830387526115f3838351611632565b60209788019790935091909101906001016115da565b8060005b603281101561162c57815184526020938401939091019060010161160d565b50505050565b6000815180845260005b818110156116585760208185018101518683018201520161163c565b8181111561166a576000602083870101525b50601f01601f19169290920160200192915050565b60006020808301818452808551808352604092508286019150828160051b87010184880160005b8381101561170857603f198984030185528151606081518186526116cc82870182611632565b915050888201518582038a8701526116e48282611632565b9289015163ffffffff169589019590955250948701949250908601906001016116a6565b509098975050505050505050565b600061fa408287835b6103e881101561173f57815183526020928301929091019060010161171f565b50505080617d0084015261175581840187611587565b9050828103617d2084015261176a8186611587565b915050617d4082018360005b6103e881101561179c57815163ffffffff16835260209283019290910190600101611776565b50505095945050505050565b60006119406117b7838a611609565b806106408401526117ca818401896115ce565b90508281036106608401526117df81886115ce565b91505061068082018560005b603281101561181057815163ffffffff168352602092830192909101906001016117eb565b505050611821610cc0830185611609565b61130082018360005b603281101561184b578151151583526020928301929091019060010161182a565b505050979650505050505050565b6020815260006115046020830184611632565b60608152600061187f6060830186611632565b82810360208401526118918186611632565b91505063ffffffff83166040830152949350505050565b8481526080602082015260006118c16080830186611632565b82810360408401526118d38186611632565b91505060018060a01b038316606083015295945050505050565b6000821982111561190057611900611989565b500190565b60008282101561191757611917611989565b500390565b60008161192b5761192b611989565b506000190190565b600181811c9082168061194757607f821691505b6020821081141561196857634e487b7160e01b600052602260045260246000fd5b50919050565b600060001982141561198257611982611989565b5060010190565b634e487b7160e01b600052601160045260246000fd5b634e487b7160e01b600052603260045260246000fd5b634e487b7160e01b600052604160045260246000fdfea2646970667358221220da1825deec5849c76fc52a20520c267e397ae5580ed88f1f738d43ec15176fea64736f6c634300080600334966206c696265727479206d65616e7320616e797468696e6720617420616c6c2c206974206d65616e732074686520726967687420746f2074656c6c2070656f706c652077686174207468657920646f206e6f742077616e7420746f20686561722e207e2047656f726765204f7277656c6c",
  "immutableReferences": {},
  "source": "pragma solidity ^0.8.0;\n\nimport \"./ownable.sol\";\nimport \"openzeppelin-solidity/contracts/utils/math/SafeCast.sol\";\nimport \"openzeppelin-solidity/contracts/utils/math/SafeMath.sol\";\n\n\n/// @author Joseph H. Cottingham\n/// @notice This is still in Beta and has not been optimized or tested\n/// @dev Nothing as of now\ncontract SpeakWordManager is Ownable {\n\n    using SafeMath for uint256;\n\n    struct Word {\n        string title;\n        string body;\n        uint32 timestamp;\n    }\n\n    struct WordExtended {\n        string title;\n        string body;\n        uint32 timestamp;\n        uint256 totalLikes;\n        bool liked;\n    }\n\n    uint createWordFee = 0.001 ether;\n\n    mapping (uint256 => address[]) wordToLikeAddresses;\n    mapping (uint256 => address) wordToOwner;\n    mapping (address => uint) ownerToBal;\n\n    Word[] public words;\n    address[] public speakers;\n\n    uint256[] public topWords;\n\n    event NewWord(uint wordId, string title, string body, address owner);\n\n\n    constructor() {\n        string memory first_word = \"If liberty means anything at all, it means the right to tell people what they do not want to hear. ~ George Orwell\";\n        _createWord(\"Liberty of Words.\", first_word);\n    }\n\n    /// @notice Creates a new word\n    /// @param _title Title of new word\n    /// @param _body Body of new word\n    function _createWord(string memory _title, string memory _body) internal {\n        require(ownerToBal[msg.sender] < 1000);\n        Word memory newWord = Word(_title, _body, uint32(block.timestamp));\n        words.push(newWord);\n        uint256 id = words.length;\n        wordToOwner[id] = msg.sender;\n        wordToLikeAddresses[id].push(msg.sender);\n        ownerToBal[msg.sender] = ownerToBal[msg.sender] + 1;\n        configSpeakers();\n        emit NewWord(id, _title, _body, wordToOwner[id]);\n    }\n\n    /// @notice Creates a new word external\n    /// @param _title Title of new word\n    /// @param _body Body of new word\n    function createWord(string memory _title, string memory _body) external payable {\n        _createWord(_title, _body);\n    }\n\n    /// @notice Like a word by word id\n    /// @param wordId id of word token\n    function like(uint256 wordId) external returns (bool result) {\n        // Check if address has already like content\n        for (uint256 index = 0; index < wordToLikeAddresses[wordId].length; index++) {\n            if (msg.sender == wordToLikeAddresses[wordId][index]) {\n                return false;\n            }\n        }\n        // Like the word\n        wordToLikeAddresses[wordId].push(msg.sender);\n        return true;\n    }\n\n\n    /// @notice Get the top words of all time\n    /// @return wordIdArray Array of word Id based on index\n    /// @return titleArray Array of word title based on index\n    /// @return bodyArray Array of word bodies based on index\n    /// @return timestampArray Array of creation timestamp based on index\n    /// @return totalLikesArray Array of word likes's based on index\n    /// @return likedArray Array of wallet address like status for a word based on index\n    function getTopWords() external view returns (uint256[50] memory wordIdArray, string[50] memory titleArray, string[50] memory bodyArray, uint32[50] memory timestampArray, uint256[50] memory totalLikesArray, bool[50] memory likedArray) {\n        uint256[50] memory wordIdArray;\n        string[50] memory titleArray;\n        string[50] memory bodyArray;\n        uint32[50] memory timestampArray;\n        uint256[50] memory totalLikesArray;\n        bool[50] memory likedArray;\n    \n        uint256 lowestLikes = 0;\n        uint256 lowestLikesId = 0;\n        for (uint256 index = 0; index < words.length; index++) {\n            address[] memory likes = wordToLikeAddresses[index];\n            if (index < 50 || likes.length > lowestLikes) {\n                if (index < 50) {\n                    lowestLikesId=index;\n                    lowestLikes=likes.length;\n                } else {\n                    // Finds the lowest like word in current top list\n                    for (uint256 indexTopWord = 0; indexTopWord < 50; indexTopWord++) {\n                        address[] memory likesSub = wordToLikeAddresses[wordIdArray[indexTopWord]];\n                        if (likesSub.length < lowestLikes) {\n                            lowestLikesId=indexTopWord;\n                            lowestLikes=likesSub.length;\n                        }\n                    }\n                }\n\n                bool liked = false;\n                for (uint256 indexLike = 0; indexLike < likes.length; indexLike++) {\n                    if (likes[indexLike] == msg.sender) {\n                        liked = true;\n                    }\n                }\n                \n                // Sets values\n                wordIdArray[lowestLikesId] = index;\n                titleArray[lowestLikesId] = words[index].title;\n                bodyArray[lowestLikesId] = words[index].body;\n                timestampArray[lowestLikesId] = words[index].timestamp;\n                totalLikesArray[lowestLikesId] = likes.length;\n                likedArray[lowestLikesId] = liked;\n\n            }\n        }\n        return (wordIdArray, titleArray, bodyArray, timestampArray, totalLikesArray, likedArray);\n    }\n\n\n    /// @notice Get the recent created words\n    /// @return wordIdArray Array of word Id based on index\n    /// @return titleArray Array of word title based on index\n    /// @return bodyArray Array of word bodies based on index\n    /// @return timestampArray Array of creation timestamp based on index\n    /// @return totalLikesArray Array of word likes's based on index\n    /// @return likedArray Array of wallet address like status for a word based on index\n    function getRecentWords() external view returns (uint256[50] memory wordIdArray, string[50] memory titleArray, string[50] memory bodyArray, uint32[50] memory timestampArray, uint256[50] memory totalLikesArray, bool[50] memory likedArray) {\n        uint256[50] memory wordIdArray;\n        string[50] memory titleArray;\n        string[50] memory bodyArray;\n        uint32[50] memory timestampArray;\n        uint256[50] memory totalLikesArray;\n        bool[50] memory likedArray;\n    \n        uint256 count = 0;\n        uint256 length = words.length;\n        if (length < 50) {\n            length=0;\n        } else {\n            length=length-51;\n        }\n        for (uint256 index = words.length-1; index >= length; index--) {\n            bool liked = false;\n            for (uint256 indexLike = 0; indexLike < wordToLikeAddresses[index].length; indexLike++) {\n                if (wordToLikeAddresses[index][indexLike] == msg.sender) {\n                    liked = true;\n                }\n            }\n            // Sets values\n            wordIdArray[count] = index;\n            titleArray[count] = words[index].title;\n            bodyArray[count] = words[index].body;\n            timestampArray[count] = words[index].timestamp;\n            totalLikesArray[count] = wordToLikeAddresses[index].length;\n            likedArray[count] = liked;\n            count++;\n            // Breaks if about to flip sign bit\n            if (index == 0) {\n                break;\n            }\n        }\n        return (wordIdArray, titleArray, bodyArray, timestampArray, totalLikesArray, likedArray);\n    }\n\n\n    /// @notice Get of wall adress words\n    /// @return wordIdArray Array of word Id based on index\n    /// @return titleArray Array of word title based on index\n    /// @return bodyArray Array of word bodies based on index\n    /// @return timestampArray Array of creation timestamp based on index\n    function getWords(address owner) external view returns (uint256[1000] memory wordIdArray, string[1000] memory titleArray, string[1000] memory bodyArray, uint32[1000] memory timestampArray) {\n        uint256[1000] memory wordIdArray;\n        string[1000] memory titleArray;\n        string[1000] memory bodyArray;\n        uint32[1000] memory timestampArray;\n        \n        uint256 count = 0;\n        for (uint256 index = 0; index < words.length; index++) {\n            if (owner == wordToOwner[index]) {\n                wordIdArray[count] = index;\n                titleArray[count] = words[index].title;\n                bodyArray[count] = words[index].body;\n                timestampArray[count] = words[index].timestamp;\n                count++;\n            }\n        }\n        return (wordIdArray, titleArray, bodyArray, timestampArray);\n    } \n\n    /// @notice Get all words that exist\n    /// @return words array of all words that exist\n    function getAllWords() external view returns (Word[] memory words) {\n        return words;\n    } \n\n    /// @notice sets the new word creation fee\n    function setCreateWordFee(uint _fee) external onlyOwner {\n        createWordFee = _fee;\n    }\n\n    /// @notice sets the new word creation fee\n    function configSpeakers() internal {\n        for (uint256 index = 0; index < speakers.length; index++) {\n            if (speakers[index] == msg.sender) {\n                return;\n            }\n        }\n        speakers.push(owner);\n    }\n\n}\n",
  "sourcePath": "/Users/joe/projects/makeschool/BEW2-4/speak_ERC-721/speak/contracts/SpeakWordManager.sol",
  "compiler": {
    "name": "solc",
    "version": "0.8.6+commit.11564f7e.Emscripten.clang"
  },
  "schemaVersion": "3.4.1",
  "updatedAt": "2021-07-13T22:21:44.715Z",
  "devdoc": {
    "author": "Joseph H. Cottingham",
    "details": "Nothing as of now",
    "kind": "dev",
    "methods": {
      "createWord(string,string)": {
        "params": {
          "_body": "Body of new word",
          "_title": "Title of new word"
        }
      },
      "getAllWords()": {
        "returns": {
          "words": "array of all words that exist"
        }
      },
      "getRecentWords()": {
        "returns": {
          "bodyArray": "Array of word bodies based on index",
          "likedArray": "Array of wallet address like status for a word based on index",
          "timestampArray": "Array of creation timestamp based on index",
          "titleArray": "Array of word title based on index",
          "totalLikesArray": "Array of word likes's based on index",
          "wordIdArray": "Array of word Id based on index"
        }
      },
      "getTopWords()": {
        "returns": {
          "bodyArray": "Array of word bodies based on index",
          "likedArray": "Array of wallet address like status for a word based on index",
          "timestampArray": "Array of creation timestamp based on index",
          "titleArray": "Array of word title based on index",
          "totalLikesArray": "Array of word likes's based on index",
          "wordIdArray": "Array of word Id based on index"
        }
      },
      "getWords(address)": {
        "returns": {
          "bodyArray": "Array of word bodies based on index",
          "timestampArray": "Array of creation timestamp based on index",
          "titleArray": "Array of word title based on index",
          "wordIdArray": "Array of word Id based on index"
        }
      },
      "like(uint256)": {
        "params": {
          "wordId": "id of word token"
        }
      },
      "transferOwnership(address)": {
        "details": "Allows the current owner to transfer control of the contract to a newOwner.",
        "params": {
          "_newOwner": "The address to transfer ownership to."
        }
      }
    },
    "version": 1
  },
  "userdoc": {
    "kind": "user",
    "methods": {
      "createWord(string,string)": {
        "notice": "Creates a new word external"
      },
      "getAllWords()": {
        "notice": "Get all words that exist"
      },
      "getRecentWords()": {
        "notice": "Get the recent created words"
      },
      "getTopWords()": {
        "notice": "Get the top words of all time"
      },
      "getWords(address)": {
        "notice": "Get of wall adress words"
      },
      "like(uint256)": {
        "notice": "Like a word by word id"
      },
      "setCreateWordFee(uint256)": {
        "notice": "sets the new word creation fee"
      }
    },
    "notice": "This is still in Beta and has not been optimized or tested",
    "version": 1
  }
}