{
  "contractName": "Speak",
  "abi": [
    {
      "inputs": [],
      "stateMutability": "nonpayable",
      "type": "constructor"
    },
    {
      "anonymous": false,
      "inputs": [
        {
          "indexed": true,
          "internalType": "address",
          "name": "owner",
          "type": "address"
        },
        {
          "indexed": true,
          "internalType": "address",
          "name": "approved",
          "type": "address"
        },
        {
          "indexed": true,
          "internalType": "uint256",
          "name": "tokenId",
          "type": "uint256"
        }
      ],
      "name": "Approval",
      "type": "event"
    },
    {
      "anonymous": false,
      "inputs": [
        {
          "indexed": true,
          "internalType": "address",
          "name": "owner",
          "type": "address"
        },
        {
          "indexed": true,
          "internalType": "address",
          "name": "operator",
          "type": "address"
        },
        {
          "indexed": false,
          "internalType": "bool",
          "name": "approved",
          "type": "bool"
        }
      ],
      "name": "ApprovalForAll",
      "type": "event"
    },
    {
      "anonymous": false,
      "inputs": [
        {
          "indexed": false,
          "internalType": "uint256",
          "name": "wordId",
          "type": "uint256"
        },
        {
          "indexed": false,
          "internalType": "string",
          "name": "title",
          "type": "string"
        },
        {
          "indexed": false,
          "internalType": "string",
          "name": "body",
          "type": "string"
        },
        {
          "indexed": false,
          "internalType": "address",
          "name": "owner",
          "type": "address"
        }
      ],
      "name": "NewWord",
      "type": "event"
    },
    {
      "anonymous": false,
      "inputs": [
        {
          "indexed": true,
          "internalType": "address",
          "name": "previousOwner",
          "type": "address"
        },
        {
          "indexed": true,
          "internalType": "address",
          "name": "newOwner",
          "type": "address"
        }
      ],
      "name": "OwnershipTransferred",
      "type": "event"
    },
    {
      "anonymous": false,
      "inputs": [
        {
          "indexed": true,
          "internalType": "address",
          "name": "from",
          "type": "address"
        },
        {
          "indexed": true,
          "internalType": "address",
          "name": "to",
          "type": "address"
        },
        {
          "indexed": true,
          "internalType": "uint256",
          "name": "tokenId",
          "type": "uint256"
        }
      ],
      "name": "Transfer",
      "type": "event"
    },
    {
      "inputs": [],
      "name": "CANNOT_TRANSFER_TO_ZERO_ADDRESS",
      "outputs": [
        {
          "internalType": "string",
          "name": "",
          "type": "string"
        }
      ],
      "stateMutability": "view",
      "type": "function",
      "constant": true
    },
    {
      "inputs": [],
      "name": "NOT_CURRENT_OWNER",
      "outputs": [
        {
          "internalType": "string",
          "name": "",
          "type": "string"
        }
      ],
      "stateMutability": "view",
      "type": "function",
      "constant": true
    },
    {
      "inputs": [
        {
          "internalType": "string",
          "name": "_title",
          "type": "string"
        },
        {
          "internalType": "string",
          "name": "_body",
          "type": "string"
        }
      ],
      "name": "createWord",
      "outputs": [],
      "stateMutability": "payable",
      "type": "function",
      "payable": true
    },
    {
      "inputs": [],
      "name": "getAllWords",
      "outputs": [
        {
          "components": [
            {
              "internalType": "string",
              "name": "title",
              "type": "string"
            },
            {
              "internalType": "string",
              "name": "body",
              "type": "string"
            },
            {
              "internalType": "uint32",
              "name": "timestamp",
              "type": "uint32"
            }
          ],
          "internalType": "struct SpeakWordManager.Word[]",
          "name": "words",
          "type": "tuple[]"
        }
      ],
      "stateMutability": "view",
      "type": "function",
      "constant": true
    },
    {
      "inputs": [],
      "name": "getRecentWords",
      "outputs": [
        {
          "internalType": "uint256[50]",
          "name": "wordIdArray",
          "type": "uint256[50]"
        },
        {
          "internalType": "string[50]",
          "name": "titleArray",
          "type": "string[50]"
        },
        {
          "internalType": "string[50]",
          "name": "bodyArray",
          "type": "string[50]"
        },
        {
          "internalType": "uint32[50]",
          "name": "timestampArray",
          "type": "uint32[50]"
        },
        {
          "internalType": "uint256[50]",
          "name": "totalLikesArray",
          "type": "uint256[50]"
        },
        {
          "internalType": "bool[50]",
          "name": "likedArray",
          "type": "bool[50]"
        }
      ],
      "stateMutability": "view",
      "type": "function",
      "constant": true
    },
    {
      "inputs": [],
      "name": "getTopWords",
      "outputs": [
        {
          "internalType": "uint256[50]",
          "name": "wordIdArray",
          "type": "uint256[50]"
        },
        {
          "internalType": "string[50]",
          "name": "titleArray",
          "type": "string[50]"
        },
        {
          "internalType": "string[50]",
          "name": "bodyArray",
          "type": "string[50]"
        },
        {
          "internalType": "uint32[50]",
          "name": "timestampArray",
          "type": "uint32[50]"
        },
        {
          "internalType": "uint256[50]",
          "name": "totalLikesArray",
          "type": "uint256[50]"
        },
        {
          "internalType": "bool[50]",
          "name": "likedArray",
          "type": "bool[50]"
        }
      ],
      "stateMutability": "view",
      "type": "function",
      "constant": true
    },
    {
      "inputs": [
        {
          "internalType": "address",
          "name": "owner",
          "type": "address"
        }
      ],
      "name": "getWords",
      "outputs": [
        {
          "internalType": "uint256[1000]",
          "name": "wordIdArray",
          "type": "uint256[1000]"
        },
        {
          "internalType": "string[1000]",
          "name": "titleArray",
          "type": "string[1000]"
        },
        {
          "internalType": "string[1000]",
          "name": "bodyArray",
          "type": "string[1000]"
        },
        {
          "internalType": "uint32[1000]",
          "name": "timestampArray",
          "type": "uint32[1000]"
        }
      ],
      "stateMutability": "view",
      "type": "function",
      "constant": true
    },
    {
      "inputs": [
        {
          "internalType": "uint256",
          "name": "wordId",
          "type": "uint256"
        }
      ],
      "name": "like",
      "outputs": [
        {
          "internalType": "bool",
          "name": "result",
          "type": "bool"
        }
      ],
      "stateMutability": "nonpayable",
      "type": "function"
    },
    {
      "inputs": [],
      "name": "owner",
      "outputs": [
        {
          "internalType": "address",
          "name": "",
          "type": "address"
        }
      ],
      "stateMutability": "view",
      "type": "function",
      "constant": true
    },
    {
      "inputs": [
        {
          "internalType": "uint256",
          "name": "_fee",
          "type": "uint256"
        }
      ],
      "name": "setCreateWordFee",
      "outputs": [],
      "stateMutability": "nonpayable",
      "type": "function"
    },
    {
      "inputs": [
        {
          "internalType": "uint256",
          "name": "",
          "type": "uint256"
        }
      ],
      "name": "speakers",
      "outputs": [
        {
          "internalType": "address",
          "name": "",
          "type": "address"
        }
      ],
      "stateMutability": "view",
      "type": "function",
      "constant": true
    },
    {
      "inputs": [
        {
          "internalType": "uint256",
          "name": "",
          "type": "uint256"
        }
      ],
      "name": "topWords",
      "outputs": [
        {
          "internalType": "uint256",
          "name": "",
          "type": "uint256"
        }
      ],
      "stateMutability": "view",
      "type": "function",
      "constant": true
    },
    {
      "inputs": [
        {
          "internalType": "address",
          "name": "_newOwner",
          "type": "address"
        }
      ],
      "name": "transferOwnership",
      "outputs": [],
      "stateMutability": "nonpayable",
      "type": "function"
    },
    {
      "inputs": [
        {
          "internalType": "uint256",
          "name": "",
          "type": "uint256"
        }
      ],
      "name": "words",
      "outputs": [
        {
          "internalType": "string",
          "name": "title",
          "type": "string"
        },
        {
          "internalType": "string",
          "name": "body",
          "type": "string"
        },
        {
          "internalType": "uint32",
          "name": "timestamp",
          "type": "uint32"
        }
      ],
      "stateMutability": "view",
      "type": "function",
      "constant": true
    },
    {
      "inputs": [
        {
          "internalType": "address",
          "name": "owner",
          "type": "address"
        }
      ],
      "name": "balanceOf",
      "outputs": [
        {
          "internalType": "uint256",
          "name": "balance",
          "type": "uint256"
        }
      ],
      "stateMutability": "view",
      "type": "function",
      "constant": true
    },
    {
      "inputs": [
        {
          "internalType": "uint256",
          "name": "tokenId",
          "type": "uint256"
        }
      ],
      "name": "ownerOf",
      "outputs": [
        {
          "internalType": "address",
          "name": "owner",
          "type": "address"
        }
      ],
      "stateMutability": "view",
      "type": "function",
      "constant": true
    },
    {
      "inputs": [
        {
          "internalType": "address",
          "name": "from",
          "type": "address"
        },
        {
          "internalType": "address",
          "name": "to",
          "type": "address"
        },
        {
          "internalType": "uint256",
          "name": "tokenId",
          "type": "uint256"
        }
      ],
      "name": "transferFrom",
      "outputs": [],
      "stateMutability": "nonpayable",
      "type": "function"
    },
    {
      "inputs": [
        {
          "internalType": "address",
          "name": "to",
          "type": "address"
        },
        {
          "internalType": "uint256",
          "name": "tokenId",
          "type": "uint256"
        }
      ],
      "name": "approve",
      "outputs": [],
      "stateMutability": "nonpayable",
      "type": "function"
    },
    {
      "inputs": [
        {
          "internalType": "uint256",
          "name": "tokenId",
          "type": "uint256"
        }
      ],
      "name": "getApproved",
      "outputs": [
        {
          "internalType": "address",
          "name": "operator",
          "type": "address"
        }
      ],
      "stateMutability": "view",
      "type": "function",
      "constant": true
    },
    {
      "inputs": [
        {
          "internalType": "address",
          "name": "operator",
          "type": "address"
        },
        {
          "internalType": "bool",
          "name": "_approved",
          "type": "bool"
        }
      ],
      "name": "setApprovalForAll",
      "outputs": [],
      "stateMutability": "nonpayable",
      "type": "function"
    },
    {
      "inputs": [
        {
          "internalType": "address",
          "name": "owner",
          "type": "address"
        },
        {
          "internalType": "address",
          "name": "operator",
          "type": "address"
        }
      ],
      "name": "isApprovedForAll",
      "outputs": [
        {
          "internalType": "bool",
          "name": "",
          "type": "bool"
        }
      ],
      "stateMutability": "view",
      "type": "function",
      "constant": true
    },
    {
      "inputs": [
        {
          "internalType": "address",
          "name": "from",
          "type": "address"
        },
        {
          "internalType": "address",
          "name": "to",
          "type": "address"
        },
        {
          "internalType": "uint256",
          "name": "tokenId",
          "type": "uint256"
        }
      ],
      "name": "safeTransferFrom",
      "outputs": [],
      "stateMutability": "nonpayable",
      "type": "function"
    },
    {
      "inputs": [
        {
          "internalType": "address",
          "name": "from",
          "type": "address"
        },
        {
          "internalType": "address",
          "name": "to",
          "type": "address"
        },
        {
          "internalType": "uint256",
          "name": "tokenId",
          "type": "uint256"
        },
        {
          "internalType": "bytes",
          "name": "data",
          "type": "bytes"
        }
      ],
      "name": "safeTransferFrom",
      "outputs": [],
      "stateMutability": "nonpayable",
      "type": "function"
    },
    {
      "inputs": [
        {
          "internalType": "bytes4",
          "name": "interfaceId",
          "type": "bytes4"
        }
      ],
      "name": "supportsInterface",
      "outputs": [
        {
          "internalType": "bool",
          "name": "",
          "type": "bool"
        }
      ],
      "stateMutability": "view",
      "type": "function",
      "constant": true
    }
  ],
  "bytecode": "0x608060405266038d7ea4c680006001553480156200001c57600080fd5b50600080546001600160a01b031916331781556040805160a081019091526072808252620025fb6020830139905062000085604051806040016040528060118152602001702634b132b93a3c9037b3102bb7b932399760791b815250826200008c60201b60201c565b50620004c5565b336000908152600460205260409020546103e811620000aa57600080fd5b60408051606081018252838152602080820184905263ffffffff42169282019290925260058054600181018255600091909152815180519293849360039093027f036b6384b5eca791c62761152d0c79bb0604c104a5fb6f4eb0703f3154bb3db001926200011c9284920190620002e4565b506020828101518051620001379260018501920190620002e4565b506040918201516002918201805463ffffffff191663ffffffff9092169190911790556005546000818152600360209081528482208054336001600160a01b0319918216811790925594825285832080546001818101835591855283852001805490961682179095558252600490529290922054620001b69162000423565b33600090815260046020526040902055620001d06200022e565b600081815260036020526040908190205490517f81519a1f48c791d544e19b36ffa377cd5f6d15ab057b9034eff84f019eb9379f9162000220918491889188916001600160a01b031690620003da565b60405180910390a150505050565b60005b6006548110156200029057336001600160a01b0316600682815481106200025c576200025c620004af565b6000918252602090912001546001600160a01b031614156200027b5750565b8062000287816200047b565b91505062000231565b50600080546006805460018101825592527ff652222313e28459528d920b65115c16c04f3efc82aaedc97be59f3f377c0d3f90910180546001600160a01b0319166001600160a01b03909216919091179055565b828054620002f2906200043e565b90600052602060002090601f01602090048101928262000316576000855562000361565b82601f106200033157805160ff191683800117855562000361565b8280016001018555821562000361579182015b828111156200036157825182559160200191906001019062000344565b506200036f92915062000373565b5090565b5b808211156200036f576000815560010162000374565b6000815180845260005b81811015620003b25760208185018101518683018201520162000394565b81811115620003c5576000602083870101525b50601f01601f19169290920160200192915050565b848152608060208201526000620003f560808301866200038a565b82810360408401526200040981866200038a565b91505060018060a01b038316606083015295945050505050565b6000821982111562000439576200043962000499565b500190565b600181811c908216806200045357607f821691505b602082108114156200047557634e487b7160e01b600052602260045260246000fd5b50919050565b600060001982141562000492576200049262000499565b5060010190565b634e487b7160e01b600052601160045260246000fd5b634e487b7160e01b600052603260045260246000fd5b61212680620004d56000396000f3fe60806040526004361061011b5760003560e01c806301ffc9a714610120578063081812fc14610166578063095ea7b3146101b457806323b872dd146101d657806332d86b6e146101f657806342842e0e146102165780634abaac331461023657806351ac06501461025d57806359171a231461027d5780636352211e146102ab57806370a08231146102e15780637539677614610301578063860d248a14610331578063884fc838146103705780638da5cb5b1461039f578063a22cb465146103bf578063b03594a7146103de578063b88d4fde146103fa578063cae2ff0e1461041a578063e82935da1461042d578063e985e9c51461044d578063f2fde38b14610470578063f3fe3bc314610490578063f6967d1d146104c2575b600080fd5b34801561012c57600080fd5b5061015161013b366004611be6565b6001600160e01b0319166301ffc9a760e01b1490565b60405190151581526020015b60405180910390f35b34801561017257600080fd5b5061019c610181366004611c73565b6000908152600860205260409020546001600160a01b031690565b6040516001600160a01b03909116815260200161015d565b3480156101c057600080fd5b506101d46101cf366004611bbc565b6104d7565b005b3480156101e257600080fd5b506101d46101f1366004611aaa565b610577565b34801561020257600080fd5b506101d4610211366004611c73565b61062e565b34801561022257600080fd5b506101d4610231366004611aaa565b610686565b34801561024257600080fd5b5061024b610797565b60405161015d96959493929190611ead565b34801561026957600080fd5b5061019c610278366004611c73565b610bfb565b34801561028957600080fd5b5061029d610298366004611c73565b610c25565b60405190815260200161015d565b3480156102b757600080fd5b5061019c6102c6366004611c73565b6000908152600360205260409020546001600160a01b031690565b3480156102ed57600080fd5b5061029d6102fc366004611a55565b610c46565b34801561030d57600080fd5b5061032161031c366004611a55565b610c9e565b60405161015d9493929190611e1b565b34801561033d57600080fd5b506103636040518060400160405280600681526020016518189c18181960d11b81525081565b60405161015d9190611f5e565b34801561037c57600080fd5b5061039061038b366004611c73565b610f35565b60405161015d93929190611f71565b3480156103ab57600080fd5b5060005461019c906001600160a01b031681565b3480156103cb57600080fd5b506101d46103da366004611b80565b5050565b3480156103ea57600080fd5b50606060405161015d9190611d84565b34801561040657600080fd5b506101d4610415366004611ae6565b611085565b6101d4610428366004611c10565b61113e565b34801561043957600080fd5b50610151610448366004611c73565b611148565b34801561045957600080fd5b50610151610468366004611a77565b600092915050565b34801561047c57600080fd5b506101d461048b366004611a55565b6111ef565b34801561049c57600080fd5b506103636040518060400160405280600681526020016530313830303160d01b81525081565b3480156104ce57600080fd5b5061024b6112d9565b60008181526003602052604090205481906001600160a01b031633148061051457506000818152600860205260409020546001600160a01b031633145b61051d57600080fd5b60008281526008602052604080822080546001600160a01b0319166001600160a01b0387169081179091559051849233917f8c5be1e5ebec7d5bd14f71427d1e84f3dd0314c0f7b2291e5b200ac8c7c3b9259190a4505050565b60008181526003602052604090205481906001600160a01b03163314806105b457506000818152600860205260409020546001600160a01b031633145b6105bd57600080fd5b6001600160a01b0383166105d057600080fd5b600082815260036020908152604080832080546001600160a01b038089166001600160a01b031992831681179093556008909452828520805490911690559051859391928816916000805160206120d183398151915291a450505050565b60005460408051808201909152600681526530313830303160d01b6020820152906001600160a01b031633146106805760405162461bcd60e51b81526004016106779190611f5e565b60405180910390fd5b50600155565b60008181526003602052604090205481906001600160a01b03163314806106c357506000818152600860205260409020546001600160a01b031633145b6106cc57600080fd5b6000805b60065481101561072d57846001600160a01b0316600682815481106106f7576106f76120a4565b6000918252602090912001546001600160a01b0316141561071b576001915061072d565b8061072581612073565b9150506106d0565b508061073857600080fd5b600083815260036020908152604080832080546001600160a01b03808a166001600160a01b031992831681179093556008909452828520805490911690559051869391928916916000805160206120d183398151915291a45050505050565b61079f611891565b6107a76118b0565b6107af6118b0565b6107b7611891565b6107bf611891565b6107c7611891565b6107cf611891565b6107d76118b0565b6107df6118b0565b6107e7611891565b6107ef611891565b6107f7611891565b60008060005b600554811015610be45760008181526002602090815260408083208054825181850281018501909352808352919290919083018282801561086757602002820191906000526020600020905b81546001600160a01b03168152600190910190602001808311610849575b50505050509050603282108061087d5750838151115b15610bd1576032821015610897578192508051935061094f565b60005b603281101561094d576000600260008d84603281106108bb576108bb6120a4565b6020020151815260200190815260200160002080548060200260200160405190810160405280929190818152602001828054801561092257602002820191906000526020600020905b81546001600160a01b03168152600190910190602001808311610904575b50505050509050858151101561093a57819450805195505b508061094581612073565b91505061089a565b505b6000805b82518110156109a657336001600160a01b0316838281518110610978576109786120a4565b60200260200101516001600160a01b0316141561099457600191505b8061099e81612073565b915050610953565b50828b85603281106109ba576109ba6120a4565b602002015260058054849081106109d3576109d36120a4565b906000526020600020906003020160000180546109ef90612038565b80601f0160208091040260200160405190810160405280929190818152602001828054610a1b90612038565b8015610a685780601f10610a3d57610100808354040283529160200191610a68565b820191906000526020600020905b815481529060010190602001808311610a4b57829003601f168201915b50505050508a8560328110610a7f57610a7f6120a4565b60200201526005805484908110610a9857610a986120a4565b90600052602060002090600302016001018054610ab490612038565b80601f0160208091040260200160405190810160405280929190818152602001828054610ae090612038565b8015610b2d5780601f10610b0257610100808354040283529160200191610b2d565b820191906000526020600020905b815481529060010190602001808311610b1057829003601f168201915b5050505050898560328110610b4457610b446120a4565b60200201526005805484908110610b5d57610b5d6120a4565b600091825260209091206002600390920201015463ffffffff16888560328110610b8957610b896120a4565b63ffffffff90921660209290920201528151878560328110610bad57610bad6120a4565b602002015280868560328110610bc557610bc56120a4565b91151560209092020152505b5080610bdc81612073565b9150506107fd565b50969d959c50939a50919850965094509092505050565b60068181548110610c0b57600080fd5b6000918252602090912001546001600160a01b0316905081565b60078181548110610c3557600080fd5b600091825260209091200154905081565b600080805b600554811015610c97576000818152600360205260409020546001600160a01b0385811691161415610c855781610c8181612073565b9250505b80610c8f81612073565b915050610c4b565b5092915050565b610ca66118d8565b610cae6118f8565b610cb66118f8565b610cbe6118d8565b610cc66118d8565b610cce6118f8565b610cd66118f8565b610cde6118d8565b6000805b600554811015610f24576000818152600360205260409020546001600160a01b038c811691161415610f12578086836103e88110610d2257610d226120a4565b60200201526005805482908110610d3b57610d3b6120a4565b90600052602060002090600302016000018054610d5790612038565b80601f0160208091040260200160405190810160405280929190818152602001828054610d8390612038565b8015610dd05780601f10610da557610100808354040283529160200191610dd0565b820191906000526020600020905b815481529060010190602001808311610db357829003601f168201915b505050505085836103e88110610de857610de86120a4565b60200201526005805482908110610e0157610e016120a4565b90600052602060002090600302016001018054610e1d90612038565b80601f0160208091040260200160405190810160405280929190818152602001828054610e4990612038565b8015610e965780601f10610e6b57610100808354040283529160200191610e96565b820191906000526020600020905b815481529060010190602001808311610e7957829003601f168201915b505050505084836103e88110610eae57610eae6120a4565b60200201526005805482908110610ec757610ec76120a4565b600091825260209091206002600390920201015463ffffffff1683836103e88110610ef457610ef46120a4565b63ffffffff909216602092909202015281610f0e81612073565b9250505b80610f1c81612073565b915050610ce2565b509399929850909650945092505050565b60058181548110610f4557600080fd5b9060005260206000209060030201600091509050806000018054610f6890612038565b80601f0160208091040260200160405190810160405280929190818152602001828054610f9490612038565b8015610fe15780601f10610fb657610100808354040283529160200191610fe1565b820191906000526020600020905b815481529060010190602001808311610fc457829003601f168201915b505050505090806001018054610ff690612038565b80601f016020809104026020016040519081016040528092919081815260200182805461102290612038565b801561106f5780601f106110445761010080835404028352916020019161106f565b820191906000526020600020905b81548152906001019060200180831161105257829003601f168201915b5050506002909301549192505063ffffffff1683565b60008381526003602052604090205483906001600160a01b03163314806110c257506000818152600860205260409020546001600160a01b031633145b6110cb57600080fd5b6001600160a01b0385166110de57600080fd5b600084815260036020908152604080832080546001600160a01b03808b166001600160a01b031992831681179093556008909452828520805490911690559051879391928a16916000805160206120d183398151915291a4505050505050565b6103da828261164c565b6000805b6000838152600260205260409020548110156111b9576000838152600260205260409020805482908110611182576111826120a4565b6000918252602090912001546001600160a01b03163314156111a75750600092915050565b806111b181612073565b91505061114c565b505060009081526002602090815260408220805460018181018355918452919092200180546001600160a01b0319163317905590565b60005460408051808201909152600681526530313830303160d01b6020820152906001600160a01b031633146112385760405162461bcd60e51b81526004016106779190611f5e565b5060408051808201909152600681526518189c18181960d11b60208201526001600160a01b03821661127d5760405162461bcd60e51b81526004016106779190611f5e565b50600080546040516001600160a01b03808516939216917f8be0079c531659141344cd1fd0a4f28419497f9722a3daafe3b4186f6b6457e091a3600080546001600160a01b0319166001600160a01b0392909216919091179055565b6112e1611891565b6112e96118b0565b6112f16118b0565b6112f9611891565b611301611891565b611309611891565b611311611891565b6113196118b0565b6113216118b0565b611329611891565b611331611891565b611339611891565b60055460009060328110156113505750600061135e565b61135b60338261200a565b90505b6005546000906113709060019061200a565b90505b818110610be4576000805b6000838152600260205260409020548110156113e95760008381526002602052604090208054339190839081106113b7576113b76120a4565b6000918252602090912001546001600160a01b031614156113d757600191505b806113e181612073565b91505061137e565b50818a85603281106113fd576113fd6120a4565b60200201526005805483908110611416576114166120a4565b9060005260206000209060030201600001805461143290612038565b80601f016020809104026020016040519081016040528092919081815260200182805461145e90612038565b80156114ab5780601f10611480576101008083540402835291602001916114ab565b820191906000526020600020905b81548152906001019060200180831161148e57829003601f168201915b50505050508985603281106114c2576114c26120a4565b602002015260058054839081106114db576114db6120a4565b906000526020600020906003020160010180546114f790612038565b80601f016020809104026020016040519081016040528092919081815260200182805461152390612038565b80156115705780601f1061154557610100808354040283529160200191611570565b820191906000526020600020905b81548152906001019060200180831161155357829003601f168201915b5050505050888560328110611587576115876120a4565b602002015260058054839081106115a0576115a06120a4565b600091825260209091206002600390920201015463ffffffff168785603281106115cc576115cc6120a4565b63ffffffff909216602092830291909101526000838152600290915260409020548685603281106115ff576115ff6120a4565b602002015280858560328110611617576116176120a4565b911515602090920201528361162b81612073565b945050816116395750610be4565b508061164481612021565b915050611373565b336000908152600460205260409020546103e81161166957600080fd5b60408051606081018252838152602080820184905263ffffffff42169282019290925260058054600181018255600091909152815180519293849360039093027f036b6384b5eca791c62761152d0c79bb0604c104a5fb6f4eb0703f3154bb3db001926116d99284920190611914565b5060208281015180516116f29260018501920190611914565b506040918201516002918201805463ffffffff191663ffffffff9092169190911790556005546000818152600360209081528482208054336001600160a01b031991821681179092559482528583208054600181810183559185528385200180549096168217909555825260049052929092205461176f91611ff2565b336000908152600460205260409020556117876117e3565b600081815260036020526040908190205490517f81519a1f48c791d544e19b36ffa377cd5f6d15ab057b9034eff84f019eb9379f916117d5918491889188916001600160a01b031690611fad565b60405180910390a150505050565b60005b60065481101561183d57336001600160a01b03166006828154811061180d5761180d6120a4565b6000918252602090912001546001600160a01b0316141561182b5750565b8061183581612073565b9150506117e6565b50600080546006805460018101825592527ff652222313e28459528d920b65115c16c04f3efc82aaedc97be59f3f377c0d3f90910180546001600160a01b0319166001600160a01b03909216919091179055565b6040518061064001604052806032906020820280368337509192915050565b6040518061064001604052806032905b60608152602001906001900390816118c05790505090565b60405180617d0001604052806103e8906020820280368337509192915050565b60408051617d008101909152606081526103e7602082016118c0565b82805461192090612038565b90600052602060002090601f0160209004810192826119425760008555611988565b82601f1061195b57805160ff1916838001178555611988565b82800160010185558215611988579182015b8281111561198857825182559160200191906001019061196d565b50611994929150611998565b5090565b5b808211156119945760008155600101611999565b80356001600160a01b03811681146119c457600080fd5b919050565b600082601f8301126119da57600080fd5b81356001600160401b03808211156119f4576119f46120ba565b604051601f8301601f19908116603f01168101908282118183101715611a1c57611a1c6120ba565b81604052838152866020858801011115611a3557600080fd5b836020870160208301376000602085830101528094505050505092915050565b600060208284031215611a6757600080fd5b611a70826119ad565b9392505050565b60008060408385031215611a8a57600080fd5b611a93836119ad565b9150611aa1602084016119ad565b90509250929050565b600080600060608486031215611abf57600080fd5b611ac8846119ad565b9250611ad6602085016119ad565b9150604084013590509250925092565b600080600080600060808688031215611afe57600080fd5b611b07866119ad565b9450611b15602087016119ad565b93506040860135925060608601356001600160401b0380821115611b3857600080fd5b818801915088601f830112611b4c57600080fd5b813581811115611b5b57600080fd5b896020828501011115611b6d57600080fd5b9699959850939650602001949392505050565b60008060408385031215611b9357600080fd5b611b9c836119ad565b915060208301358015158114611bb157600080fd5b809150509250929050565b60008060408385031215611bcf57600080fd5b611bd8836119ad565b946020939093013593505050565b600060208284031215611bf857600080fd5b81356001600160e01b031981168114611a7057600080fd5b60008060408385031215611c2357600080fd5b82356001600160401b0380821115611c3a57600080fd5b611c46868387016119c9565b93506020850135915080821115611c5c57600080fd5b50611c69858286016119c9565b9150509250929050565b600060208284031215611c8557600080fd5b5035919050565b600082617d0081018360005b6103e8811015611cc8578383038752611cb2838351611d37565b6020978801979093509190910190600101611c98565b509095945050505050565b60008261064081018360005b6032811015611cc8578383038752611cf8838351611d37565b6020978801979093509190910190600101611cdf565b8060005b6032811015611d31578151845260209384019390910190600101611d12565b50505050565b6000815180845260005b81811015611d5d57602081850181015186830182015201611d41565b81811115611d6f576000602083870101525b50601f01601f19169290920160200192915050565b60006020808301818452808551808352604092508286019150828160051b87010184880160005b83811015611e0d57603f19898403018552815160608151818652611dd182870182611d37565b915050888201518582038a870152611de98282611d37565b9289015163ffffffff16958901959095525094870194925090860190600101611dab565b509098975050505050505050565b600061fa408287835b6103e8811015611e44578151835260209283019290910190600101611e24565b50505080617d00840152611e5a81840187611c8c565b9050828103617d20840152611e6f8186611c8c565b915050617d4082018360005b6103e8811015611ea157815163ffffffff16835260209283019290910190600101611e7b565b50505095945050505050565b6000611940611ebc838a611d0e565b80610640840152611ecf81840189611cd3565b9050828103610660840152611ee48188611cd3565b91505061068082018560005b6032811015611f1557815163ffffffff16835260209283019290910190600101611ef0565b505050611f26610cc0830185611d0e565b61130082018360005b6032811015611f505781511515835260209283019290910190600101611f2f565b505050979650505050505050565b602081526000611a706020830184611d37565b606081526000611f846060830186611d37565b8281036020840152611f968186611d37565b91505063ffffffff83166040830152949350505050565b848152608060208201526000611fc66080830186611d37565b8281036040840152611fd88186611d37565b91505060018060a01b038316606083015295945050505050565b600082198211156120055761200561208e565b500190565b60008282101561201c5761201c61208e565b500390565b6000816120305761203061208e565b506000190190565b600181811c9082168061204c57607f821691505b6020821081141561206d57634e487b7160e01b600052602260045260246000fd5b50919050565b60006000198214156120875761208761208e565b5060010190565b634e487b7160e01b600052601160045260246000fd5b634e487b7160e01b600052603260045260246000fd5b634e487b7160e01b600052604160045260246000fdfeddf252ad1be2c89b69c2b068fc378daa952ba7f163c4a11628f55a4df523b3efa26469706673582212200c445332dbecf083c1bd8b8316c62663e11643e13da758b7e8ad83d05787032d64736f6c634300080600334966206c696265727479206d65616e7320616e797468696e6720617420616c6c2c206974206d65616e732074686520726967687420746f2074656c6c2070656f706c652077686174207468657920646f206e6f742077616e7420746f20686561722e207e2047656f726765204f7277656c6c",
  "immutableReferences": {},
  "source": "pragma solidity ^0.8.0;\n\nimport \"./SpeakWordManager.sol\";\nimport \"openzeppelin-solidity/contracts/token/ERC721/ERC721.sol\";\nimport \"openzeppelin-solidity/contracts/utils/math/SafeCast.sol\";\nimport \"openzeppelin-solidity/contracts/utils/math/SafeMath.sol\";\n\n\n\ncontract Speak is SpeakWordManager, IERC721 {\n\n    using SafeMath for uint256;\n\n    mapping (uint => address) wordToApproved;\n\n\n    // STATE VARIABLES\n    constructor() {\n        \n    }\n\n    modifier validOperator(uint256 tokenId) {\n        require(msg.sender == wordToOwner[tokenId] || msg.sender == wordToApproved[tokenId]);\n        _;\n    }\n\n    // IERC721 Implementation\n    function balanceOf(address owner) external view override returns (uint256 balance) {\n        uint256 count = 0; \n        for (uint256 index = 0; index < words.length; index++) {\n            if (wordToOwner[index] == owner) {\n                count++;\n            }\n        }\n        return count;\n    }\n\n    function ownerOf(uint256 tokenId) external view override returns (address owner){\n        return wordToOwner[tokenId];\n    }\n\n    function safeTransferFrom(address from, address to, uint256 tokenId) external override validOperator(tokenId) {\n        bool validAddress = false;\n        for (uint256 index; index < speakers.length; index++) {\n            if (speakers[index] == to) {\n                validAddress = true;\n                break;\n            }\n        }\n        require(validAddress);\n        wordToOwner[tokenId] = to;\n        wordToApproved[tokenId] = address(0);\n        emit Transfer(from, to, tokenId);\n    }\n\n    function transferFrom(address from, address to, uint256 tokenId) external override validOperator(tokenId) {\n        require(to != address(0));\n        wordToOwner[tokenId] = to;\n        wordToApproved[tokenId] = address(0);\n        emit Transfer(from, to, tokenId);\n    }\n\n    function approve(address to, uint256 tokenId) external override validOperator(tokenId) {\n        wordToApproved[tokenId] = to;\n        emit Approval(msg.sender, to, tokenId);\n    }\n\n    function getApproved(uint256 tokenId) external view override returns (address operator) {\n        return wordToApproved[tokenId];\n    }\n\n    function setApprovalForAll(address operator, bool _approved) external override {\n    }\n\n    function isApprovedForAll(address owner, address operator) external view override returns (bool) {\n\n    }\n\n    function safeTransferFrom(address from, address to, uint256 tokenId, bytes calldata data) external override validOperator(tokenId) {\n        require(to != address(0));\n        wordToOwner[tokenId] = to;\n        wordToApproved[tokenId] = address(0);\n        emit Transfer(from, to, tokenId);\n    }\n\n    // IERC165\n    function supportsInterface(bytes4 interfaceId) external view override returns (bool){\n        return interfaceId == this.supportsInterface.selector;\n    }\n\n}\n",
  "sourcePath": "/Users/joe/projects/makeschool/BEW2-4/speak_ERC-721/speak/contracts/Speak.sol",
  "compiler": {
    "name": "solc",
    "version": "0.8.6+commit.11564f7e.Emscripten.clang"
  },
  "schemaVersion": "3.4.1",
  "updatedAt": "2021-07-13T22:29:01.930Z",
  "networkType": "ethereum",
  "devdoc": {
    "kind": "dev",
    "methods": {
      "approve(address,uint256)": {
        "details": "Gives permission to `to` to transfer `tokenId` token to another account. The approval is cleared when the token is transferred. Only a single account can be approved at a time, so approving the zero address clears previous approvals. Requirements: - The caller must own the token or be an approved operator. - `tokenId` must exist. Emits an {Approval} event."
      },
      "balanceOf(address)": {
        "details": "Returns the number of tokens in ``owner``'s account."
      },
      "createWord(string,string)": {
        "params": {
          "_body": "Body of new word",
          "_title": "Title of new word"
        }
      },
      "getAllWords()": {
        "returns": {
          "words": "array of all words that exist"
        }
      },
      "getApproved(uint256)": {
        "details": "Returns the account approved for `tokenId` token. Requirements: - `tokenId` must exist."
      },
      "getRecentWords()": {
        "returns": {
          "bodyArray": "Array of word bodies based on index",
          "likedArray": "Array of wallet address like status for a word based on index",
          "timestampArray": "Array of creation timestamp based on index",
          "titleArray": "Array of word title based on index",
          "totalLikesArray": "Array of word likes's based on index",
          "wordIdArray": "Array of word Id based on index"
        }
      },
      "getTopWords()": {
        "returns": {
          "bodyArray": "Array of word bodies based on index",
          "likedArray": "Array of wallet address like status for a word based on index",
          "timestampArray": "Array of creation timestamp based on index",
          "titleArray": "Array of word title based on index",
          "totalLikesArray": "Array of word likes's based on index",
          "wordIdArray": "Array of word Id based on index"
        }
      },
      "getWords(address)": {
        "returns": {
          "bodyArray": "Array of word bodies based on index",
          "timestampArray": "Array of creation timestamp based on index",
          "titleArray": "Array of word title based on index",
          "wordIdArray": "Array of word Id based on index"
        }
      },
      "isApprovedForAll(address,address)": {
        "details": "Returns if the `operator` is allowed to manage all of the assets of `owner`. See {setApprovalForAll}"
      },
      "like(uint256)": {
        "params": {
          "wordId": "id of word token"
        }
      },
      "ownerOf(uint256)": {
        "details": "Returns the owner of the `tokenId` token. Requirements: - `tokenId` must exist."
      },
      "safeTransferFrom(address,address,uint256)": {
        "details": "Safely transfers `tokenId` token from `from` to `to`, checking first that contract recipients are aware of the ERC721 protocol to prevent tokens from being forever locked. Requirements: - `from` cannot be the zero address. - `to` cannot be the zero address. - `tokenId` token must exist and be owned by `from`. - If the caller is not `from`, it must be have been allowed to move this token by either {approve} or {setApprovalForAll}. - If `to` refers to a smart contract, it must implement {IERC721Receiver-onERC721Received}, which is called upon a safe transfer. Emits a {Transfer} event."
      },
      "safeTransferFrom(address,address,uint256,bytes)": {
        "details": "Safely transfers `tokenId` token from `from` to `to`. Requirements: - `from` cannot be the zero address. - `to` cannot be the zero address. - `tokenId` token must exist and be owned by `from`. - If the caller is not `from`, it must be approved to move this token by either {approve} or {setApprovalForAll}. - If `to` refers to a smart contract, it must implement {IERC721Receiver-onERC721Received}, which is called upon a safe transfer. Emits a {Transfer} event."
      },
      "setApprovalForAll(address,bool)": {
        "details": "Approve or remove `operator` as an operator for the caller. Operators can call {transferFrom} or {safeTransferFrom} for any token owned by the caller. Requirements: - The `operator` cannot be the caller. Emits an {ApprovalForAll} event."
      },
      "supportsInterface(bytes4)": {
        "details": "Returns true if this contract implements the interface defined by `interfaceId`. See the corresponding https://eips.ethereum.org/EIPS/eip-165#how-interfaces-are-identified[EIP section] to learn more about how these ids are created. This function call must use less than 30 000 gas."
      },
      "transferFrom(address,address,uint256)": {
        "details": "Transfers `tokenId` token from `from` to `to`. WARNING: Usage of this method is discouraged, use {safeTransferFrom} whenever possible. Requirements: - `from` cannot be the zero address. - `to` cannot be the zero address. - `tokenId` token must be owned by `from`. - If the caller is not `from`, it must be approved to move this token by either {approve} or {setApprovalForAll}. Emits a {Transfer} event."
      },
      "transferOwnership(address)": {
        "details": "Allows the current owner to transfer control of the contract to a newOwner.",
        "params": {
          "_newOwner": "The address to transfer ownership to."
        }
      }
    },
    "version": 1
  },
  "userdoc": {
    "kind": "user",
    "methods": {
      "createWord(string,string)": {
        "notice": "Creates a new word external"
      },
      "getAllWords()": {
        "notice": "Get all words that exist"
      },
      "getRecentWords()": {
        "notice": "Get the recent created words"
      },
      "getTopWords()": {
        "notice": "Get the top words of all time"
      },
      "getWords(address)": {
        "notice": "Get of wall adress words"
      },
      "like(uint256)": {
        "notice": "Like a word by word id"
      },
      "setCreateWordFee(uint256)": {
        "notice": "sets the new word creation fee"
      }
    },
    "version": 1
  }
}